{
  "contractName": "Refugee",
  "abi": [
    {
      "inputs": [],
      "stateMutability": "payable",
      "type": "constructor"
    },
    {
      "anonymous": false,
      "inputs": [
        {
          "indexed": false,
          "internalType": "string",
          "name": "sender",
          "type": "string"
        },
        {
          "indexed": false,
          "internalType": "string",
          "name": "receiver",
          "type": "string"
        },
        {
          "indexed": false,
          "internalType": "uint256",
          "name": "amount",
          "type": "uint256"
        },
        {
          "indexed": false,
          "internalType": "uint256",
          "name": "datetime",
          "type": "uint256"
        }
      ],
      "name": "check",
      "type": "event"
    },
    {
      "anonymous": false,
      "inputs": [
        {
          "indexed": false,
          "internalType": "bytes32",
          "name": "s1",
          "type": "bytes32"
        }
      ],
      "name": "flag",
      "type": "event"
    },
    {
      "anonymous": false,
      "inputs": [
        {
          "indexed": false,
          "internalType": "bytes32",
          "name": "username",
          "type": "bytes32"
        },
        {
          "indexed": false,
          "internalType": "bytes32",
          "name": "password",
          "type": "bytes32"
        }
      ],
      "name": "logindetails",
      "type": "event"
    },
    {
      "anonymous": false,
      "inputs": [
        {
          "indexed": false,
          "internalType": "string",
          "name": "str1",
          "type": "string"
        },
        {
          "indexed": false,
          "internalType": "address",
          "name": "ad1",
          "type": "address"
        }
      ],
      "name": "loopchk",
      "type": "event"
    },
    {
      "anonymous": false,
      "inputs": [
        {
          "indexed": false,
          "internalType": "bool",
          "name": "transcationStatus",
          "type": "bool"
        },
        {
          "indexed": false,
          "internalType": "uint256",
          "name": "subsidy",
          "type": "uint256"
        }
      ],
      "name": "status",
      "type": "event"
    },
    {
      "inputs": [
        {
          "internalType": "uint256",
          "name": "",
          "type": "uint256"
        }
      ],
      "name": "allUserId",
      "outputs": [
        {
          "internalType": "string",
          "name": "",
          "type": "string"
        }
      ],
      "stateMutability": "view",
      "type": "function"
    },
    {
      "inputs": [
        {
          "internalType": "string",
          "name": "",
          "type": "string"
        }
      ],
      "name": "passwordcreditainals",
      "outputs": [
        {
          "internalType": "bytes32",
          "name": "",
          "type": "bytes32"
        }
      ],
      "stateMutability": "view",
      "type": "function"
    },
    {
      "inputs": [
        {
          "internalType": "string",
          "name": "",
          "type": "string"
        },
        {
          "internalType": "uint256",
          "name": "",
          "type": "uint256"
        }
      ],
      "name": "receivetrans",
      "outputs": [
        {
          "internalType": "bytes32",
          "name": "",
          "type": "bytes32"
        }
      ],
      "stateMutability": "view",
      "type": "function"
    },
    {
      "inputs": [
        {
          "internalType": "bytes32",
          "name": "",
          "type": "bytes32"
        }
      ],
      "name": "transactions",
      "outputs": [
        {
          "internalType": "string",
          "name": "sender",
          "type": "string"
        },
        {
          "internalType": "string",
          "name": "receiver",
          "type": "string"
        },
        {
          "internalType": "uint256",
          "name": "amount",
          "type": "uint256"
        },
        {
          "internalType": "string",
          "name": "message",
          "type": "string"
        },
        {
          "internalType": "uint256",
          "name": "datetime",
          "type": "uint256"
        }
      ],
      "stateMutability": "view",
      "type": "function"
    },
    {
      "inputs": [
        {
          "internalType": "string",
          "name": "",
          "type": "string"
        },
        {
          "internalType": "uint256",
          "name": "",
          "type": "uint256"
        }
      ],
      "name": "translog",
      "outputs": [
        {
          "internalType": "bytes32",
          "name": "",
          "type": "bytes32"
        }
      ],
      "stateMutability": "view",
      "type": "function"
    },
    {
      "inputs": [
        {
          "internalType": "string",
          "name": "",
          "type": "string"
        }
      ],
      "name": "usernamecreditainals",
      "outputs": [
        {
          "internalType": "bytes32",
          "name": "",
          "type": "bytes32"
        }
      ],
      "stateMutability": "view",
      "type": "function"
    },
    {
      "inputs": [
        {
          "internalType": "string",
          "name": "",
          "type": "string"
        }
      ],
      "name": "users",
      "outputs": [
        {
          "internalType": "string",
          "name": "fName",
          "type": "string"
        },
        {
          "internalType": "string",
          "name": "lName",
          "type": "string"
        },
        {
          "internalType": "string",
          "name": "mobile",
          "type": "string"
        },
        {
          "internalType": "string",
          "name": "dob",
          "type": "string"
        },
        {
          "internalType": "uint256",
          "name": "age",
          "type": "uint256"
        },
        {
          "internalType": "string",
          "name": "nationality",
          "type": "string"
        },
        {
          "internalType": "string",
          "name": "gender",
          "type": "string"
        }
      ],
      "stateMutability": "view",
      "type": "function"
    },
    {
      "inputs": [
        {
          "internalType": "string",
          "name": "",
          "type": "string"
        }
      ],
      "name": "usersWithAddress",
      "outputs": [
        {
          "internalType": "address payable",
          "name": "",
          "type": "address"
        }
      ],
      "stateMutability": "view",
      "type": "function"
    },
    {
      "stateMutability": "payable",
      "type": "receive"
    },
    {
      "inputs": [
        {
          "internalType": "string",
          "name": "_userId",
          "type": "string"
        },
        {
          "internalType": "string",
          "name": "_fName",
          "type": "string"
        },
        {
          "internalType": "string",
          "name": "_lName",
          "type": "string"
        },
        {
          "internalType": "string",
          "name": "_mobile",
          "type": "string"
        },
        {
          "internalType": "string",
          "name": "_dob",
          "type": "string"
        },
        {
          "internalType": "uint256",
          "name": "_age",
          "type": "uint256"
        },
        {
          "internalType": "string",
          "name": "_nationality",
          "type": "string"
        },
        {
          "internalType": "string",
          "name": "_gender",
          "type": "string"
        }
      ],
      "name": "createUser",
      "outputs": [],
      "stateMutability": "nonpayable",
      "type": "function"
    },
    {
      "inputs": [
        {
          "internalType": "string",
          "name": "_userId",
          "type": "string"
        }
      ],
      "name": "chkexisitinguserId",
      "outputs": [
        {
          "internalType": "bool",
          "name": "",
          "type": "bool"
        }
      ],
      "stateMutability": "view",
      "type": "function"
    },
    {
      "inputs": [
        {
          "internalType": "string",
          "name": "_userId",
          "type": "string"
        },
        {
          "internalType": "string",
          "name": "_Sname",
          "type": "string"
        }
      ],
      "name": "getuserbool",
      "outputs": [
        {
          "internalType": "bool",
          "name": "",
          "type": "bool"
        }
      ],
      "stateMutability": "view",
      "type": "function"
    },
    {
      "inputs": [
        {
          "internalType": "string",
          "name": "_userId",
          "type": "string"
        },
        {
          "internalType": "address payable",
          "name": "_addr",
          "type": "address"
        }
      ],
      "name": "mapaddress",
      "outputs": [],
      "stateMutability": "nonpayable",
      "type": "function"
    },
    {
      "inputs": [
        {
          "internalType": "string",
          "name": "_userId",
          "type": "string"
        }
      ],
      "name": "getuserAddr",
      "outputs": [
        {
          "internalType": "address payable",
          "name": "",
          "type": "address"
        }
      ],
      "stateMutability": "view",
      "type": "function"
    },
    {
      "inputs": [
        {
          "internalType": "string",
          "name": "_userId",
          "type": "string"
        }
      ],
      "name": "getUser",
      "outputs": [
        {
          "internalType": "string",
          "name": "",
          "type": "string"
        },
        {
          "internalType": "string",
          "name": "",
          "type": "string"
        },
        {
          "internalType": "string",
          "name": "",
          "type": "string"
        },
        {
          "internalType": "string",
          "name": "",
          "type": "string"
        },
        {
          "internalType": "uint256",
          "name": "",
          "type": "uint256"
        },
        {
          "internalType": "string",
          "name": "",
          "type": "string"
        },
        {
          "internalType": "string",
          "name": "",
          "type": "string"
        }
      ],
      "stateMutability": "view",
      "type": "function"
    },
    {
      "inputs": [],
      "name": "getnoofUser",
      "outputs": [
        {
          "internalType": "uint256",
          "name": "",
          "type": "uint256"
        }
      ],
      "stateMutability": "view",
      "type": "function"
    },
    {
      "inputs": [
        {
          "internalType": "string",
          "name": "_user_Id",
          "type": "string"
        },
        {
          "internalType": "string",
          "name": "_firstname",
          "type": "string"
        },
        {
          "internalType": "string",
          "name": "mobile",
          "type": "string"
        },
        {
          "internalType": "string",
          "name": "dob",
          "type": "string"
        }
      ],
      "name": "createuserNameandpassword",
      "outputs": [],
      "stateMutability": "nonpayable",
      "type": "function"
    },
    {
      "inputs": [
        {
          "internalType": "string",
          "name": "_user_Id",
          "type": "string"
        },
        {
          "internalType": "string",
          "name": "_username",
          "type": "string"
        },
        {
          "internalType": "string",
          "name": "_password",
          "type": "string"
        },
        {
          "internalType": "string",
          "name": "mobile",
          "type": "string"
        },
        {
          "internalType": "string",
          "name": "dob",
          "type": "string"
        }
      ],
      "name": "updateusercreditainals",
      "outputs": [],
      "stateMutability": "nonpayable",
      "type": "function"
    },
    {
      "inputs": [
        {
          "internalType": "string",
          "name": "_userName",
          "type": "string"
        },
        {
          "internalType": "string",
          "name": "_passWord",
          "type": "string"
        },
        {
          "internalType": "string",
          "name": "_userId",
          "type": "string"
        },
        {
          "internalType": "string",
          "name": "mobile",
          "type": "string"
        },
        {
          "internalType": "string",
          "name": "dob",
          "type": "string"
        }
      ],
      "name": "checkusercreditanials",
      "outputs": [
        {
          "internalType": "bool",
          "name": "",
          "type": "bool"
        }
      ],
      "stateMutability": "nonpayable",
      "type": "function"
    },
    {
      "inputs": [
        {
          "internalType": "string",
          "name": "_userId",
          "type": "string"
        },
        {
          "internalType": "string",
          "name": "_sender",
          "type": "string"
        },
        {
          "internalType": "string",
          "name": "_receiver",
          "type": "string"
        },
        {
          "internalType": "string",
          "name": "_recID",
          "type": "string"
        },
        {
          "internalType": "uint256",
          "name": "_amount",
          "type": "uint256"
        },
        {
          "internalType": "string",
          "name": "_message",
          "type": "string"
        },
        {
          "internalType": "uint256",
          "name": "_datetime",
          "type": "uint256"
        }
      ],
      "name": "storeTransactionDetails",
      "outputs": [],
      "stateMutability": "nonpayable",
      "type": "function"
    },
    {
      "inputs": [
        {
          "internalType": "bytes32",
          "name": "_tid",
          "type": "bytes32"
        }
      ],
      "name": "gettranscationid",
      "outputs": [
        {
          "internalType": "string",
          "name": "",
          "type": "string"
        },
        {
          "internalType": "string",
          "name": "",
          "type": "string"
        },
        {
          "internalType": "uint256",
          "name": "",
          "type": "uint256"
        },
        {
          "internalType": "uint256",
          "name": "",
          "type": "uint256"
        }
      ],
      "stateMutability": "view",
      "type": "function"
    },
    {
      "inputs": [
        {
          "internalType": "string",
          "name": "_userId",
          "type": "string"
        }
      ],
      "name": "gettranscationhistory",
      "outputs": [
        {
          "internalType": "string[]",
          "name": "",
          "type": "string[]"
        },
        {
          "internalType": "string[]",
          "name": "",
          "type": "string[]"
        },
        {
          "internalType": "uint256[]",
          "name": "",
          "type": "uint256[]"
        },
        {
          "internalType": "uint256[]",
          "name": "",
          "type": "uint256[]"
        }
      ],
      "stateMutability": "nonpayable",
      "type": "function"
    },
    {
      "inputs": [
        {
          "internalType": "string",
          "name": "_userId",
          "type": "string"
        }
      ],
      "name": "getreceivetranscationhistory",
      "outputs": [
        {
          "internalType": "string[]",
          "name": "",
          "type": "string[]"
        },
        {
          "internalType": "string[]",
          "name": "",
          "type": "string[]"
        },
        {
          "internalType": "uint256[]",
          "name": "",
          "type": "uint256[]"
        },
        {
          "internalType": "uint256[]",
          "name": "",
          "type": "uint256[]"
        }
      ],
      "stateMutability": "nonpayable",
      "type": "function"
    },
    {
      "inputs": [
        {
          "internalType": "string",
          "name": "str1",
          "type": "string"
        },
        {
          "internalType": "string",
          "name": "str2",
          "type": "string"
        }
      ],
      "name": "checktransfertype",
      "outputs": [
        {
          "internalType": "bool",
          "name": "",
          "type": "bool"
        }
      ],
      "stateMutability": "pure",
      "type": "function"
    },
    {
      "inputs": [
        {
          "internalType": "string",
          "name": "_Sname",
          "type": "string"
        },
        {
          "internalType": "string",
          "name": "_S_userid",
          "type": "string"
        },
        {
          "internalType": "string",
          "name": "_Rname",
          "type": "string"
        },
        {
          "internalType": "string",
          "name": "_R_userid",
          "type": "string"
        },
        {
          "internalType": "string",
          "name": "transtype",
          "type": "string"
        },
        {
          "internalType": "uint256",
          "name": "amt",
          "type": "uint256"
        }
      ],
      "name": "transfermoney",
      "outputs": [],
      "stateMutability": "payable",
      "type": "function"
    },
    {
      "inputs": [
        {
          "internalType": "address",
          "name": "addr",
          "type": "address"
        }
      ],
      "name": "getwalletbalance",
      "outputs": [
        {
          "internalType": "address",
          "name": "",
          "type": "address"
        }
      ],
      "stateMutability": "view",
      "type": "function"
    },
    {
      "inputs": [
        {
          "internalType": "uint256",
          "name": "amt",
          "type": "uint256"
        }
      ],
      "name": "sendsubsidyfund",
      "outputs": [],
      "stateMutability": "payable",
      "type": "function"
    }
  ],
  "bytecode": "0x60806040526000805560006001556000600260006101000a81548160ff0219169083151502179055506000600260016101000a81548160ff021916908315150217905550614559806100526000396000f3fe6080604052600436106101855760003560e01c8063823ea013116100d1578063af8b32e21161008a578063c37e36d911610064578063c37e36d914610658578063dd74e39f14610681578063e9a4b444146106be578063fec8b0fc146106fb5761018c565b8063af8b32e2146105c2578063b4c5bf14146105de578063bd96cc821461061b5761018c565b8063823ea013146104605780638365f5941461049d5780639074584d146104da57806398b6b4e31461051a57806398f5800c146105575780639b4d3fe6146105825761018c565b80633c722af01161013e578063588c567111610118578063588c567114610376578063642f2eaf146103b3578063689e1c03146103f457806377d61383146104375761018c565b80633c722af0146102f4578063463e514c1461031d5780634e1fd0201461035a5761018c565b806301d9e850146101915780630f190e0d146101ce5780630fb9c9c71461020e578063221e95511461023757806322f78d161461027457806331feb671146102b15761018c565b3661018c57005b600080fd5b34801561019d57600080fd5b506101b860048036038101906101b391906130c8565b610724565b6040516101c59190613152565b60405180910390f35b3480156101da57600080fd5b506101f560048036038101906101f091906131a3565b61076d565b6040516102059493929190613268565b60405180910390f35b34801561021a57600080fd5b50610235600480360381019061023091906132e7565b6108f4565b005b34801561024357600080fd5b5061025e60048036038101906102599190613461565b610a40565b60405161026b91906134f4565b60405180910390f35b34801561028057600080fd5b5061029b6004803603810190610296919061350f565b610a99565b6040516102a8919061357a565b60405180910390f35b3480156102bd57600080fd5b506102d860048036038101906102d391906130c8565b610ae0565b6040516102eb9796959493929190613595565b60405180910390f35b34801561030057600080fd5b5061031b6004803603810190610316919061362e565b610ecb565b005b34801561032957600080fd5b50610344600480360381019061033f9190613461565b61105c565b60405161035191906134f4565b60405180910390f35b610374600480360381019061036f919061375c565b61145c565b005b34801561038257600080fd5b5061039d600480360381019061039891906130c8565b6115fa565b6040516103aa9190613152565b60405180910390f35b3480156103bf57600080fd5b506103da60048036038101906103d591906131a3565b611642565b6040516103eb959493929190613789565b60405180910390f35b34801561040057600080fd5b5061041b600480360381019061041691906130c8565b611810565b60405161042e9796959493929190613595565b60405180910390f35b34801561044357600080fd5b5061045e600480360381019061045991906137f1565b611b98565b005b34801561046c57600080fd5b50610487600480360381019061048291906130c8565b611c35565b604051610494919061357a565b60405180910390f35b3480156104a957600080fd5b506104c460048036038101906104bf91906130c8565b611c63565b6040516104d191906134f4565b60405180910390f35b3480156104e657600080fd5b5061050160048036038101906104fc91906130c8565b611d02565b6040516105119493929190613ac2565b60405180910390f35b34801561052657600080fd5b50610541600480360381019061053c91906130c8565b612237565b60405161054e919061357a565b60405180910390f35b34801561056357600080fd5b5061056c612265565b6040516105799190613b23565b60405180910390f35b34801561058e57600080fd5b506105a960048036038101906105a491906130c8565b61226e565b6040516105b99493929190613ac2565b60405180910390f35b6105dc60048036038101906105d79190613b3e565b6127a3565b005b3480156105ea57600080fd5b50610605600480360381019061060091906137f1565b612c36565b60405161061291906134f4565b60405180910390f35b34801561062757600080fd5b50610642600480360381019061063d919061350f565b612d83565b60405161064f919061357a565b60405180910390f35b34801561066457600080fd5b5061067f600480360381019061067a9190613c57565b612dca565b005b34801561068d57600080fd5b506106a860048036038101906106a3919061375c565b612e66565b6040516106b59190613d2e565b60405180910390f35b3480156106ca57600080fd5b506106e560048036038101906106e09190613d8e565b612f06565b6040516106f29190613dca565b60405180910390f35b34801561070757600080fd5b50610722600480360381019061071d9190613e11565b612f0d565b005b6003818051602081018201805184825260208301602085012081835280955050505050506000915054906101000a900473ffffffffffffffffffffffffffffffffffffffff1681565b6060806000806008600086815260200190815260200160002060000160086000878152602001908152602001600020600101600860008881526020019081526020016000206002015460086000898152602001908152602001600020600401548380546107d990613e9c565b80601f016020809104026020016040519081016040528092919081815260200182805461080590613e9c565b80156108525780601f1061082757610100808354040283529160200191610852565b820191906000526020600020905b81548152906001019060200180831161083557829003601f168201915b5050505050935082805461086590613e9c565b80601f016020809104026020016040519081016040528092919081815260200182805461089190613e9c565b80156108de5780601f106108b3576101008083540402835291602001916108de565b820191906000526020600020905b8154815290600101906020018083116108c157829003601f168201915b5050505050925093509350935093509193509193565b6108fd88611c63565b610a36576040518060e00160405280888152602001878152602001868152602001858152602001848152602001838152602001828152506004896040516109449190613f09565b9081526020016040518091039020600082015181600001908161096791906140cc565b50602082015181600101908161097d91906140cc565b50604082015181600201908161099391906140cc565b5060608201518160030190816109a991906140cc565b506080820151816004015560a08201518160050190816109c991906140cc565b5060c08201518160060190816109df91906140cc565b509050506000808154809291906109f5906141cd565b9190505550876005600060015481526020019081526020016000209081610a1c91906140cc565b5060016000815480929190610a30906141cd565b91905055505b5050505050505050565b600081604051602001610a539190613f09565b6040516020818303038152906040528051906020012083604051602001610a7a9190613f09565b6040516020818303038152906040528051906020012014905092915050565b6009828051602081018201805184825260208301602085012081835280955050505050508181548110610acb57600080fd5b90600052602060002001600091509150505481565b60608060608060006060806000600489604051610afd9190613f09565b90815260200160405180910390206040518060e0016040529081600082018054610b2690613e9c565b80601f0160208091040260200160405190810160405280929190818152602001828054610b5290613e9c565b8015610b9f5780601f10610b7457610100808354040283529160200191610b9f565b820191906000526020600020905b815481529060010190602001808311610b8257829003601f168201915b50505050508152602001600182018054610bb890613e9c565b80601f0160208091040260200160405190810160405280929190818152602001828054610be490613e9c565b8015610c315780601f10610c0657610100808354040283529160200191610c31565b820191906000526020600020905b815481529060010190602001808311610c1457829003601f168201915b50505050508152602001600282018054610c4a90613e9c565b80601f0160208091040260200160405190810160405280929190818152602001828054610c7690613e9c565b8015610cc35780601f10610c9857610100808354040283529160200191610cc3565b820191906000526020600020905b815481529060010190602001808311610ca657829003601f168201915b50505050508152602001600382018054610cdc90613e9c565b80601f0160208091040260200160405190810160405280929190818152602001828054610d0890613e9c565b8015610d555780601f10610d2a57610100808354040283529160200191610d55565b820191906000526020600020905b815481529060010190602001808311610d3857829003601f168201915b5050505050815260200160048201548152602001600582018054610d7890613e9c565b80601f0160208091040260200160405190810160405280929190818152602001828054610da490613e9c565b8015610df15780601f10610dc657610100808354040283529160200191610df1565b820191906000526020600020905b815481529060010190602001808311610dd457829003601f168201915b50505050508152602001600682018054610e0a90613e9c565b80601f0160208091040260200160405190810160405280929190818152602001828054610e3690613e9c565b8015610e835780601f10610e5857610100808354040283529160200191610e83565b820191906000526020600020905b815481529060010190602001808311610e6657829003601f168201915b5050505050815250509050806000015181602001518260400151836060015184608001518560a001518660c00151975097509750975097509750975050919395979092949650565b60008686858585604051602001610ee6959493929190614236565b6040516020818303038152906040528051906020012090506040518060a0016040528088815260200187815260200185815260200184815260200183815250600860008381526020019081526020016000206000820151816000019081610f4d91906140cc565b506020820151816001019081610f6391906140cc565b50604082015181600201556060820151816003019081610f8391906140cc565b5060808201518160040155905050600988604051610fa19190613f09565b9081526020016040518091039020819080600181540180825580915050600190039060005260206000200160009091909190915055600a85604051610fe69190613f09565b90815260200160405180910390208190806001815401808255809150506001900390600052602060002001600090919091909150557f78165a4894f86413dbff69a2369c91538379417c3484e158aac3a638ff854f4e8160405161104a919061357a565b60405180910390a15050505050505050565b60008060048460405161106f9190613f09565b90815260200160405180910390206040518060e001604052908160008201805461109890613e9c565b80601f01602080910402602001604051908101604052809291908181526020018280546110c490613e9c565b80156111115780601f106110e657610100808354040283529160200191611111565b820191906000526020600020905b8154815290600101906020018083116110f457829003601f168201915b5050505050815260200160018201805461112a90613e9c565b80601f016020809104026020016040519081016040528092919081815260200182805461115690613e9c565b80156111a35780601f10611178576101008083540402835291602001916111a3565b820191906000526020600020905b81548152906001019060200180831161118657829003601f168201915b505050505081526020016002820180546111bc90613e9c565b80601f01602080910402602001604051908101604052809291908181526020018280546111e890613e9c565b80156112355780601f1061120a57610100808354040283529160200191611235565b820191906000526020600020905b81548152906001019060200180831161121857829003601f168201915b5050505050815260200160038201805461124e90613e9c565b80601f016020809104026020016040519081016040528092919081815260200182805461127a90613e9c565b80156112c75780601f1061129c576101008083540402835291602001916112c7565b820191906000526020600020905b8154815290600101906020018083116112aa57829003601f168201915b50505050508152602001600482015481526020016005820180546112ea90613e9c565b80601f016020809104026020016040519081016040528092919081815260200182805461131690613e9c565b80156113635780601f1061133857610100808354040283529160200191611363565b820191906000526020600020905b81548152906001019060200180831161134657829003601f168201915b5050505050815260200160068201805461137c90613e9c565b80601f01602080910402602001604051908101604052809291908181526020018280546113a890613e9c565b80156113f55780601f106113ca576101008083540402835291602001916113f5565b820191906000526020600020905b8154815290600101906020018083116113d857829003601f168201915b5050505050815250509050826040516020016114119190613f09565b60405160208183030381529060405280519060200120816000015160405160200161143c9190613f09565b604051602081830303815290604052805190602001201491505092915050565b6000604051806020016040528060008152509050600080600090505b6001548110156115f4576005600082815260200190815260200160002080546114a090613e9c565b80601f01602080910402602001604051908101604052809291908181526020018280546114cc90613e9c565b80156115195780601f106114ee57610100808354040283529160200191611519565b820191906000526020600020905b8154815290600101906020018083116114fc57829003601f168201915b505050505092506003836040516115309190613f09565b908152602001604051809103902060009054906101000a900473ffffffffffffffffffffffffffffffffffffffff1691508173ffffffffffffffffffffffffffffffffffffffff166108fc859081150290604051600060405180830381858888f193505050501580156115a7573d6000803e3d6000fd5b507f6d480c897a97ad02bbb75253f9d72e5022ac2e620f6172c24080a26c24ac5b2d83836040516115d99291906142de565b60405180910390a180806115ec906141cd565b915050611478565b50505050565b600060038260405161160c9190613f09565b908152602001604051809103902060009054906101000a900473ffffffffffffffffffffffffffffffffffffffff169050919050565b600860205280600052604060002060009150905080600001805461166590613e9c565b80601f016020809104026020016040519081016040528092919081815260200182805461169190613e9c565b80156116de5780601f106116b3576101008083540402835291602001916116de565b820191906000526020600020905b8154815290600101906020018083116116c157829003601f168201915b5050505050908060010180546116f390613e9c565b80601f016020809104026020016040519081016040528092919081815260200182805461171f90613e9c565b801561176c5780601f106117415761010080835404028352916020019161176c565b820191906000526020600020905b81548152906001019060200180831161174f57829003601f168201915b50505050509080600201549080600301805461178790613e9c565b80601f01602080910402602001604051908101604052809291908181526020018280546117b390613e9c565b80156118005780601f106117d557610100808354040283529160200191611800565b820191906000526020600020905b8154815290600101906020018083116117e357829003601f168201915b5050505050908060040154905085565b60048180516020810182018051848252602083016020850120818352809550505050505060009150905080600001805461184990613e9c565b80601f016020809104026020016040519081016040528092919081815260200182805461187590613e9c565b80156118c25780601f10611897576101008083540402835291602001916118c2565b820191906000526020600020905b8154815290600101906020018083116118a557829003601f168201915b5050505050908060010180546118d790613e9c565b80601f016020809104026020016040519081016040528092919081815260200182805461190390613e9c565b80156119505780601f1061192557610100808354040283529160200191611950565b820191906000526020600020905b81548152906001019060200180831161193357829003601f168201915b50505050509080600201805461196590613e9c565b80601f016020809104026020016040519081016040528092919081815260200182805461199190613e9c565b80156119de5780601f106119b3576101008083540402835291602001916119de565b820191906000526020600020905b8154815290600101906020018083116119c157829003601f168201915b5050505050908060030180546119f390613e9c565b80601f0160208091040260200160405190810160405280929190818152602001828054611a1f90613e9c565b8015611a6c5780601f10611a4157610100808354040283529160200191611a6c565b820191906000526020600020905b815481529060010190602001808311611a4f57829003601f168201915b505050505090806004015490806005018054611a8790613e9c565b80601f0160208091040260200160405190810160405280929190818152602001828054611ab390613e9c565b8015611b005780601f10611ad557610100808354040283529160200191611b00565b820191906000526020600020905b815481529060010190602001808311611ae357829003601f168201915b505050505090806006018054611b1590613e9c565b80601f0160208091040260200160405190810160405280929190818152602001828054611b4190613e9c565b8015611b8e5780601f10611b6357610100808354040283529160200191611b8e565b820191906000526020600020905b815481529060010190602001808311611b7157829003601f168201915b5050505050905087565b8382604051602001611bab92919061430e565b60405160208183030381529060405280519060200120600686604051611bd19190613f09565b9081526020016040518091039020819055508281604051602001611bf692919061430e565b60405160208183030381529060405280519060200120600786604051611c1c9190613f09565b9081526020016040518091039020819055505050505050565b6007818051602081018201805184825260208301602085012081835280955050505050506000915090505481565b6000806000905060005b600154811015611cf85760056000828152602001908152602001600020604051602001611c9a91906143b5565b6040516020818303038152906040528051906020012084604051602001611cc19190613f09565b6040516020818303038152906040528051906020012003611ce55760019150611cf8565b8080611cf0906141cd565b915050611c6d565b5080915050919050565b6060806060806000600a86604051611d1a9190613f09565b908152602001604051809103902080549050905060008167ffffffffffffffff811115611d4a57611d49612f9d565b5b604051908082528060200260200182016040528015611d7d57816020015b6060815260200190600190039081611d685790505b50905060008267ffffffffffffffff811115611d9c57611d9b612f9d565b5b604051908082528060200260200182016040528015611dcf57816020015b6060815260200190600190039081611dba5790505b50905060008367ffffffffffffffff811115611dee57611ded612f9d565b5b604051908082528060200260200182016040528015611e1c5781602001602082028036833780820191505090505b50905060008467ffffffffffffffff811115611e3b57611e3a612f9d565b5b604051908082528060200260200182016040528015611e695781602001602082028036833780820191505090505b50905060005b600a8b604051611e7f9190613f09565b90815260200160405180910390208054905081101561221e5760086000600a8d604051611eac9190613f09565b90815260200160405180910390208381548110611ecc57611ecb6143cc565b5b906000526020600020015481526020019081526020016000206000018054611ef390613e9c565b80601f0160208091040260200160405190810160405280929190818152602001828054611f1f90613e9c565b8015611f6c5780601f10611f4157610100808354040283529160200191611f6c565b820191906000526020600020905b815481529060010190602001808311611f4f57829003601f168201915b5050505050858281518110611f8457611f836143cc565b5b602002602001018190525060086000600a8d604051611fa39190613f09565b90815260200160405180910390208381548110611fc357611fc26143cc565b5b906000526020600020015481526020019081526020016000206001018054611fea90613e9c565b80601f016020809104026020016040519081016040528092919081815260200182805461201690613e9c565b80156120635780601f1061203857610100808354040283529160200191612063565b820191906000526020600020905b81548152906001019060200180831161204657829003601f168201915b505050505084828151811061207b5761207a6143cc565b5b602002602001018190525060086000600a8d60405161209a9190613f09565b908152602001604051809103902083815481106120ba576120b96143cc565b5b90600052602060002001548152602001908152602001600020600201548382815181106120ea576120e96143cc565b5b60200260200101818152505060086000600a8d60405161210a9190613f09565b9081526020016040518091039020838154811061212a576121296143cc565b5b906000526020600020015481526020019081526020016000206004015482828151811061215a576121596143cc565b5b6020026020010181815250507f5eee8d1d373bae2f82114eff62ab4e08c5103d71ed4ac639ade9be6fd16596ec85828151811061219a576121996143cc565b5b60200260200101518583815181106121b5576121b46143cc565b5b60200260200101518584815181106121d0576121cf6143cc565b5b60200260200101518585815181106121eb576121ea6143cc565b5b60200260200101516040516122039493929190613268565b60405180910390a18080612216906141cd565b915050611e6f565b5083838383985098509850985050505050509193509193565b6006818051602081018201805184825260208301602085012081835280955050505050506000915090505481565b60008054905090565b60608060608060006009866040516122869190613f09565b908152602001604051809103902080549050905060008167ffffffffffffffff8111156122b6576122b5612f9d565b5b6040519080825280602002602001820160405280156122e957816020015b60608152602001906001900390816122d45790505b50905060008267ffffffffffffffff81111561230857612307612f9d565b5b60405190808252806020026020018201604052801561233b57816020015b60608152602001906001900390816123265790505b50905060008367ffffffffffffffff81111561235a57612359612f9d565b5b6040519080825280602002602001820160405280156123885781602001602082028036833780820191505090505b50905060008467ffffffffffffffff8111156123a7576123a6612f9d565b5b6040519080825280602002602001820160405280156123d55781602001602082028036833780820191505090505b50905060005b60098b6040516123eb9190613f09565b90815260200160405180910390208054905081101561278a576008600060098d6040516124189190613f09565b90815260200160405180910390208381548110612438576124376143cc565b5b90600052602060002001548152602001908152602001600020600001805461245f90613e9c565b80601f016020809104026020016040519081016040528092919081815260200182805461248b90613e9c565b80156124d85780601f106124ad576101008083540402835291602001916124d8565b820191906000526020600020905b8154815290600101906020018083116124bb57829003601f168201915b50505050508582815181106124f0576124ef6143cc565b5b60200260200101819052506008600060098d60405161250f9190613f09565b9081526020016040518091039020838154811061252f5761252e6143cc565b5b90600052602060002001548152602001908152602001600020600101805461255690613e9c565b80601f016020809104026020016040519081016040528092919081815260200182805461258290613e9c565b80156125cf5780601f106125a4576101008083540402835291602001916125cf565b820191906000526020600020905b8154815290600101906020018083116125b257829003601f168201915b50505050508482815181106125e7576125e66143cc565b5b60200260200101819052506008600060098d6040516126069190613f09565b90815260200160405180910390208381548110612626576126256143cc565b5b9060005260206000200154815260200190815260200160002060020154838281518110612656576126556143cc565b5b6020026020010181815250506008600060098d6040516126769190613f09565b90815260200160405180910390208381548110612696576126956143cc565b5b90600052602060002001548152602001908152602001600020600401548282815181106126c6576126c56143cc565b5b6020026020010181815250507f5eee8d1d373bae2f82114eff62ab4e08c5103d71ed4ac639ade9be6fd16596ec858281518110612706576127056143cc565b5b6020026020010151858381518110612721576127206143cc565b5b602002602001015185848151811061273c5761273b6143cc565b5b6020026020010151858581518110612757576127566143cc565b5b602002602001015160405161276f9493929190613268565b60405180910390a18080612782906141cd565b9150506123db565b5083838383985098509850985050505050509193509193565b600080600090506127b4878961105c565b80156127c657506127c5858761105c565b5b15612c2c576127d4856115fa565b91506128156040518060400160405280600681526020017f706574726f6c000000000000000000000000000000000000000000000000000081525085610a40565b1561290757606460148461282991906143fb565b612833919061446c565b90508083612841919061449d565b92508173ffffffffffffffffffffffffffffffffffffffff166108fc849081150290604051600060405180830381858888f19350505050158015612889573d6000803e3d6000fd5b506001600260006101000a81548160ff02191690831515021790555060004290506128b9888a8989888a87610ecb565b7f6235374985312041055d9135e83cd42019fa11e16c9a798596f347221688e531600260009054906101000a900460ff16856040516128f99291906144d1565b60405180910390a150612c2b565b6129466040518060400160405280600481526020017f666f6f640000000000000000000000000000000000000000000000000000000081525085610a40565b15612a3857606460148461295a91906143fb565b612964919061446c565b90508083612972919061449d565b92508173ffffffffffffffffffffffffffffffffffffffff166108fc849081150290604051600060405180830381858888f193505050501580156129ba573d6000803e3d6000fd5b506001600260006101000a81548160ff02191690831515021790555060004290506129ea888a8989888a87610ecb565b7f6235374985312041055d9135e83cd42019fa11e16c9a798596f347221688e531600260009054906101000a900460ff1685604051612a2a9291906144d1565b60405180910390a150612c2a565b612a776040518060400160405280600381526020017f4c5047000000000000000000000000000000000000000000000000000000000081525085610a40565b15612b69576064600f84612a8b91906143fb565b612a95919061446c565b90508083612aa3919061449d565b92508173ffffffffffffffffffffffffffffffffffffffff166108fc849081150290604051600060405180830381858888f19350505050158015612aeb573d6000803e3d6000fd5b506001600260006101000a81548160ff0219169083151502179055506000429050612b1b888a8989888a87610ecb565b7f6235374985312041055d9135e83cd42019fa11e16c9a798596f347221688e531600260009054906101000a900460ff1685604051612b5b9291906144d1565b60405180910390a150612c29565b8173ffffffffffffffffffffffffffffffffffffffff166108fc849081150290604051600060405180830381858888f19350505050158015612baf573d6000803e3d6000fd5b506001600260006101000a81548160ff0219169083151502179055506000429050612bdf888a8989888a87610ecb565b7f6235374985312041055d9135e83cd42019fa11e16c9a798596f347221688e531600260009054906101000a900460ff1685604051612c1f9291906144d1565b60405180910390a1505b5b5b5b5050505050505050565b6000600684604051612c489190613f09565b9081526020016040518091039020548684604051602001612c6a92919061430e565b60405160208183030381529060405280519060200120148015612cd25750600784604051612c989190613f09565b9081526020016040518091039020548583604051602001612cba92919061430e565b60405160208183030381529060405280519060200120145b15612d68576001600260016101000a81548160ff0219169083151502179055507f751300901022bb495dcabc18681d032db3c2dc165b1cc166200c59c0b1889272600685604051612d239190613f09565b908152602001604051809103902054600786604051612d429190613f09565b908152602001604051809103902054604051612d5f9291906144fa565b60405180910390a15b600260019054906101000a900460ff16905095945050505050565b600a828051602081018201805184825260208301602085012081835280955050505050508181548110612db557600080fd5b90600052602060002001600091509150505481565b8382604051602001612ddd92919061430e565b60405160208183030381529060405280519060200120600685604051612e039190613f09565b9081526020016040518091039020819055508281604051602001612e2892919061430e565b60405160208183030381529060405280519060200120600785604051612e4e9190613f09565b90815260200160405180910390208190555050505050565b60056020528060005260406000206000915090508054612e8590613e9c565b80601f0160208091040260200160405190810160405280929190818152602001828054612eb190613e9c565b8015612efe5780601f10612ed357610100808354040283529160200191612efe565b820191906000526020600020905b815481529060010190602001808311612ee157829003601f168201915b505050505081565b6000919050565b80600383604051612f1e9190613f09565b908152602001604051809103902060006101000a81548173ffffffffffffffffffffffffffffffffffffffff021916908373ffffffffffffffffffffffffffffffffffffffff1602179055505050565b6000604051905090565b600080fd5b600080fd5b600080fd5b600080fd5b6000601f19601f8301169050919050565b7f4e487b7100000000000000000000000000000000000000000000000000000000600052604160045260246000fd5b612fd582612f8c565b810181811067ffffffffffffffff82111715612ff457612ff3612f9d565b5b80604052505050565b6000613007612f6e565b90506130138282612fcc565b919050565b600067ffffffffffffffff82111561303357613032612f9d565b5b61303c82612f8c565b9050602081019050919050565b82818337600083830152505050565b600061306b61306684613018565b612ffd565b90508281526020810184848401111561308757613086612f87565b5b613092848285613049565b509392505050565b600082601f8301126130af576130ae612f82565b5b81356130bf848260208601613058565b91505092915050565b6000602082840312156130de576130dd612f78565b5b600082013567ffffffffffffffff8111156130fc576130fb612f7d565b5b6131088482850161309a565b91505092915050565b600073ffffffffffffffffffffffffffffffffffffffff82169050919050565b600061313c82613111565b9050919050565b61314c81613131565b82525050565b60006020820190506131676000830184613143565b92915050565b6000819050919050565b6131808161316d565b811461318b57600080fd5b50565b60008135905061319d81613177565b92915050565b6000602082840312156131b9576131b8612f78565b5b60006131c78482850161318e565b91505092915050565b600081519050919050565b600082825260208201905092915050565b60005b8381101561320a5780820151818401526020810190506131ef565b60008484015250505050565b6000613221826131d0565b61322b81856131db565b935061323b8185602086016131ec565b61324481612f8c565b840191505092915050565b6000819050919050565b6132628161324f565b82525050565b600060808201905081810360008301526132828187613216565b905081810360208301526132968186613216565b90506132a56040830185613259565b6132b26060830184613259565b95945050505050565b6132c48161324f565b81146132cf57600080fd5b50565b6000813590506132e1816132bb565b92915050565b600080600080600080600080610100898b03121561330857613307612f78565b5b600089013567ffffffffffffffff81111561332657613325612f7d565b5b6133328b828c0161309a565b985050602089013567ffffffffffffffff81111561335357613352612f7d565b5b61335f8b828c0161309a565b975050604089013567ffffffffffffffff8111156133805761337f612f7d565b5b61338c8b828c0161309a565b965050606089013567ffffffffffffffff8111156133ad576133ac612f7d565b5b6133b98b828c0161309a565b955050608089013567ffffffffffffffff8111156133da576133d9612f7d565b5b6133e68b828c0161309a565b94505060a06133f78b828c016132d2565b93505060c089013567ffffffffffffffff81111561341857613417612f7d565b5b6134248b828c0161309a565b92505060e089013567ffffffffffffffff81111561344557613444612f7d565b5b6134518b828c0161309a565b9150509295985092959890939650565b6000806040838503121561347857613477612f78565b5b600083013567ffffffffffffffff81111561349657613495612f7d565b5b6134a28582860161309a565b925050602083013567ffffffffffffffff8111156134c3576134c2612f7d565b5b6134cf8582860161309a565b9150509250929050565b60008115159050919050565b6134ee816134d9565b82525050565b600060208201905061350960008301846134e5565b92915050565b6000806040838503121561352657613525612f78565b5b600083013567ffffffffffffffff81111561354457613543612f7d565b5b6135508582860161309a565b9250506020613561858286016132d2565b9150509250929050565b6135748161316d565b82525050565b600060208201905061358f600083018461356b565b92915050565b600060e08201905081810360008301526135af818a613216565b905081810360208301526135c38189613216565b905081810360408301526135d78188613216565b905081810360608301526135eb8187613216565b90506135fa6080830186613259565b81810360a083015261360c8185613216565b905081810360c08301526136208184613216565b905098975050505050505050565b600080600080600080600060e0888a03121561364d5761364c612f78565b5b600088013567ffffffffffffffff81111561366b5761366a612f7d565b5b6136778a828b0161309a565b975050602088013567ffffffffffffffff81111561369857613697612f7d565b5b6136a48a828b0161309a565b965050604088013567ffffffffffffffff8111156136c5576136c4612f7d565b5b6136d18a828b0161309a565b955050606088013567ffffffffffffffff8111156136f2576136f1612f7d565b5b6136fe8a828b0161309a565b945050608061370f8a828b016132d2565b93505060a088013567ffffffffffffffff8111156137305761372f612f7d565b5b61373c8a828b0161309a565b92505060c061374d8a828b016132d2565b91505092959891949750929550565b60006020828403121561377257613771612f78565b5b6000613780848285016132d2565b91505092915050565b600060a08201905081810360008301526137a38188613216565b905081810360208301526137b78187613216565b90506137c66040830186613259565b81810360608301526137d88185613216565b90506137e76080830184613259565b9695505050505050565b600080600080600060a0868803121561380d5761380c612f78565b5b600086013567ffffffffffffffff81111561382b5761382a612f7d565b5b6138378882890161309a565b955050602086013567ffffffffffffffff81111561385857613857612f7d565b5b6138648882890161309a565b945050604086013567ffffffffffffffff81111561388557613884612f7d565b5b6138918882890161309a565b935050606086013567ffffffffffffffff8111156138b2576138b1612f7d565b5b6138be8882890161309a565b925050608086013567ffffffffffffffff8111156138df576138de612f7d565b5b6138eb8882890161309a565b9150509295509295909350565b600081519050919050565b600082825260208201905092915050565b6000819050602082019050919050565b600082825260208201905092915050565b6000613940826131d0565b61394a8185613924565b935061395a8185602086016131ec565b61396381612f8c565b840191505092915050565b600061397a8383613935565b905092915050565b6000602082019050919050565b600061399a826138f8565b6139a48185613903565b9350836020820285016139b685613914565b8060005b858110156139f257848403895281516139d3858261396e565b94506139de83613982565b925060208a019950506001810190506139ba565b50829750879550505050505092915050565b600081519050919050565b600082825260208201905092915050565b6000819050602082019050919050565b613a398161324f565b82525050565b6000613a4b8383613a30565b60208301905092915050565b6000602082019050919050565b6000613a6f82613a04565b613a798185613a0f565b9350613a8483613a20565b8060005b83811015613ab5578151613a9c8882613a3f565b9750613aa783613a57565b925050600181019050613a88565b5085935050505092915050565b60006080820190508181036000830152613adc818761398f565b90508181036020830152613af0818661398f565b90508181036040830152613b048185613a64565b90508181036060830152613b188184613a64565b905095945050505050565b6000602082019050613b386000830184613259565b92915050565b60008060008060008060c08789031215613b5b57613b5a612f78565b5b600087013567ffffffffffffffff811115613b7957613b78612f7d565b5b613b8589828a0161309a565b965050602087013567ffffffffffffffff811115613ba657613ba5612f7d565b5b613bb289828a0161309a565b955050604087013567ffffffffffffffff811115613bd357613bd2612f7d565b5b613bdf89828a0161309a565b945050606087013567ffffffffffffffff811115613c0057613bff612f7d565b5b613c0c89828a0161309a565b935050608087013567ffffffffffffffff811115613c2d57613c2c612f7d565b5b613c3989828a0161309a565b92505060a0613c4a89828a016132d2565b9150509295509295509295565b60008060008060808587031215613c7157613c70612f78565b5b600085013567ffffffffffffffff811115613c8f57613c8e612f7d565b5b613c9b8782880161309a565b945050602085013567ffffffffffffffff811115613cbc57613cbb612f7d565b5b613cc88782880161309a565b935050604085013567ffffffffffffffff811115613ce957613ce8612f7d565b5b613cf58782880161309a565b925050606085013567ffffffffffffffff811115613d1657613d15612f7d565b5b613d228782880161309a565b91505092959194509250565b60006020820190508181036000830152613d488184613216565b905092915050565b6000613d5b82613111565b9050919050565b613d6b81613d50565b8114613d7657600080fd5b50565b600081359050613d8881613d62565b92915050565b600060208284031215613da457613da3612f78565b5b6000613db284828501613d79565b91505092915050565b613dc481613d50565b82525050565b6000602082019050613ddf6000830184613dbb565b92915050565b613dee81613131565b8114613df957600080fd5b50565b600081359050613e0b81613de5565b92915050565b60008060408385031215613e2857613e27612f78565b5b600083013567ffffffffffffffff811115613e4657613e45612f7d565b5b613e528582860161309a565b9250506020613e6385828601613dfc565b9150509250929050565b7f4e487b7100000000000000000000000000000000000000000000000000000000600052602260045260246000fd5b60006002820490506001821680613eb457607f821691505b602082108103613ec757613ec6613e6d565b5b50919050565b600081905092915050565b6000613ee3826131d0565b613eed8185613ecd565b9350613efd8185602086016131ec565b80840191505092915050565b6000613f158284613ed8565b915081905092915050565b60008190508160005260206000209050919050565b60006020601f8301049050919050565b600082821b905092915050565b600060088302613f827fffffffffffffffffffffffffffffffffffffffffffffffffffffffffffffffff82613f45565b613f8c8683613f45565b95508019841693508086168417925050509392505050565b6000819050919050565b6000613fc9613fc4613fbf8461324f565b613fa4565b61324f565b9050919050565b6000819050919050565b613fe383613fae565b613ff7613fef82613fd0565b848454613f52565b825550505050565b600090565b61400c613fff565b614017818484613fda565b505050565b5b8181101561403b57614030600082614004565b60018101905061401d565b5050565b601f8211156140805761405181613f20565b61405a84613f35565b81016020851015614069578190505b61407d61407585613f35565b83018261401c565b50505b505050565b600082821c905092915050565b60006140a360001984600802614085565b1980831691505092915050565b60006140bc8383614092565b9150826002028217905092915050565b6140d5826131d0565b67ffffffffffffffff8111156140ee576140ed612f9d565b5b6140f88254613e9c565b61410382828561403f565b600060209050601f8311600181146141365760008415614124578287015190505b61412e85826140b0565b865550614196565b601f19841661414486613f20565b60005b8281101561416c57848901518255600182019150602085019450602081019050614147565b868310156141895784890151614185601f891682614092565b8355505b6001600288020188555050505b505050505050565b7f4e487b7100000000000000000000000000000000000000000000000000000000600052601160045260246000fd5b60006141d88261324f565b91507fffffffffffffffffffffffffffffffffffffffffffffffffffffffffffffffff820361420a5761420961419e565b5b600182019050919050565b6000819050919050565b61423061422b8261324f565b614215565b82525050565b60006142428288613ed8565b915061424e8287613ed8565b915061425a828661421f565b60208201915061426a8285613ed8565b9150614276828461421f565b6020820191508190509695505050505050565b60006142a461429f61429a84613111565b613fa4565b613111565b9050919050565b60006142b682614289565b9050919050565b60006142c8826142ab565b9050919050565b6142d8816142bd565b82525050565b600060408201905081810360008301526142f88185613216565b905061430760208301846142cf565b9392505050565b600061431a8285613ed8565b91506143268284613ed8565b91508190509392505050565b6000815461433f81613e9c565b6143498186613ecd565b945060018216600081146143645760018114614379576143ac565b60ff19831686528115158202860193506143ac565b61438285613f20565b60005b838110156143a457815481890152600182019150602081019050614385565b838801955050505b50505092915050565b60006143c18284614332565b915081905092915050565b7f4e487b7100000000000000000000000000000000000000000000000000000000600052603260045260246000fd5b60006144068261324f565b91506144118361324f565b925082820261441f8161324f565b915082820484148315176144365761443561419e565b5b5092915050565b7f4e487b7100000000000000000000000000000000000000000000000000000000600052601260045260246000fd5b60006144778261324f565b91506144828361324f565b9250826144925761449161443d565b5b828204905092915050565b60006144a88261324f565b91506144b38361324f565b92508282039050818111156144cb576144ca61419e565b5b92915050565b60006040820190506144e660008301856134e5565b6144f36020830184613259565b9392505050565b600060408201905061450f600083018561356b565b61451c602083018461356b565b939250505056fea2646970667358221220c8234e5c5b9d8b890ae7798e8c94df56b31998bab43c02465165418b38170c2764736f6c63430008120033",
  "immutableReferences": {},
  "source": "// SPDX-License-Identifier: UNLICENSED\npragma solidity ^0.8.0;\ncontract Refugee {\n\n     // Register user\n    struct User {\n        string fName;\n        string lName;\n        string mobile;\n        string dob;\n        uint256 age;\n        string nationality;\n        string gender;\n    }\n\n    // Variables - uint\n    uint256 noofUser = 0;\n    uint256 k=0;\n    //variables - bool\n    bool private transcationStatus = false;\n    bool loginstatus = false;\n\n\n    //mapping\n    mapping (string => address payable) public usersWithAddress;\n    mapping (string => User) public users;\n    mapping (uint256 => string) public allUserId;\n    mapping(string => bytes32) public usernamecreditainals;  //Store username;\n    mapping(string => bytes32) public passwordcreditainals; //Store password;\n    mapping (bytes32 => Transaction) public transactions; // for each transcation id corresponding transcation details are stored\n    mapping(string => bytes32[]) public translog; //       userid   transcationids for each users transcationids are mapped with them\n    mapping(string => bytes32[]) public receivetrans;\n\n    //Events\n    event flag(bytes32 s1);\n    event check(string sender, string receiver, uint256 amount, uint256 datetime);\n    event status(bool transcationStatus, uint256 subsidy);\n    event loopchk (string str1, address ad1);\n\n    // create a users\n    function createUser(string memory _userId, string memory _fName, string memory _lName, string memory _mobile, string memory _dob, uint256 _age, string memory _nationality, string memory _gender) public {\n        if(!chkexisitinguserId(_userId)){\n            users[_userId] = User(_fName, _lName, _mobile, _dob, _age,_nationality,_gender);\n            noofUser++;\n            allUserId[k] = _userId;\n            k++;\n        }\n    }\n\n    //Function used to check existing userid which promotes to create unique userId;\n    function chkexisitinguserId(string memory _userId) public view returns (bool) {\n        bool isexist = false;\n        for(uint a =0;a<k;a++){\n            if(keccak256(abi.encodePacked(_userId)) == keccak256(abi.encodePacked(allUserId[a]))){\n                isexist = true;\n                break;\n            }\n        }\n         return isexist;\n    }\n\n    //Returns wheather the user exist or not\n    function getuserbool(string memory _userId, string memory _Sname) public view returns (bool){\n        User memory user = users[_userId];\n        return keccak256(abi.encodePacked(user.fName)) == keccak256(abi.encodePacked(_Sname));\n    }\n\n    function mapaddress(string memory _userId, address payable _addr) public{\n        usersWithAddress[_userId] = _addr;\n    }\n\n    function getuserAddr(string memory _userId) public view returns (address payable){\n        return usersWithAddress[_userId];\n    }\n\n    //Returns user details\n    function getUser(string memory _userId) public view returns (string memory, string memory, string memory, string memory, uint256, string memory, string memory) {\n        User memory user = users[_userId];\n        return (user.fName, user.lName, user.mobile, user.dob, user.age, user.nationality, user.gender);\n    }\n\n    // Returns total number of users\n    function getnoofUser() public view returns (uint256){\n        return noofUser;\n    }\n\n     //Setup initial user creditanials for 1st time login\n    function createuserNameandpassword(string memory _user_Id, string memory _firstname, string memory mobile, string memory dob) public{\n        usernamecreditainals[_user_Id] = keccak256(abi.encodePacked(_user_Id, mobile));\n        passwordcreditainals[_user_Id] = keccak256(abi.encodePacked(_firstname, dob));\n    }\n\n    //update user creditanials of the user\n    function updateusercreditainals(string memory _user_Id, string memory _username, string memory _password, string memory mobile, string memory dob) public {\n        usernamecreditainals[_user_Id] = keccak256(abi.encodePacked(_username, mobile));\n        passwordcreditainals[_user_Id] = keccak256(abi.encodePacked(_password, dob));\n    }\n\n    event logindetails(bytes32 username, bytes32 password);\n    //check user creditanials for logging in \n    function checkusercreditanials(string memory _userName, string memory _passWord,string memory _userId, string memory mobile, string memory dob) public returns (bool){\n          if((keccak256(abi.encodePacked(_userName,mobile)) == usernamecreditainals[_userId]) && (keccak256(abi.encodePacked(_passWord,dob)) == passwordcreditainals[_userId])){\n              loginstatus = true;\n              emit logindetails(usernamecreditainals[_userId], passwordcreditainals[_userId]);\n          }\n          return loginstatus;\n    }\n\n    //Transcation Structure\n    struct Transaction {\n        string sender;\n        string receiver;\n        uint256 amount;\n        string message;\n        uint256 datetime;\n    }\n\n    //storeTranscationDetails => store the details of each transcations \n    function storeTransactionDetails(string memory _userId, string memory _sender, string memory _receiver, string memory _recID, uint256 _amount, string memory _message, uint256 _datetime) public {\n        //unique transferid is created using keccak256 hash by passing transcation details and hash is produced as output\n        bytes32 transferid = keccak256(abi.encodePacked(_sender, _receiver, _amount, _message, _datetime));\n        //Hash is used as index for storing each transcation and also retrieved using this hash\n        transactions[transferid] = Transaction(_sender, _receiver, _amount, _message, _datetime);\n        translog[_userId].push(transferid);\n        receivetrans[_recID].push(transferid);\n\n        emit flag(transferid);\n    }\n    // this function returns value of each function for corresponding transferid         \n    function gettranscationid(bytes32 _tid) public view returns (string memory, string memory, uint256, uint256){\n\n        return (transactions[_tid].sender, transactions[_tid].receiver,transactions[_tid].amount,transactions[_tid].datetime);\n    }\n\n    \n    \n    //returns all the transcations done by the each users by passing userid as input and returns as array of strings\n    function gettranscationhistory(string memory _userId) public returns (string[] memory , \n                                                                          string[] memory, \n                                                                          uint256[] memory, \n                                                                          uint256[] memory)\n        {\n    \n        //len stores the total number of transcation done by the user.\n        uint256 len = translog[_userId].length;\n        string[] memory sender    = new string[](len);\n        string[] memory receiver  = new string[](len);\n        uint256[] memory amount   = new uint256[](len);\n        uint256[] memory datetime = new uint256[](len);\n        \n        for(uint256 i=0;i<translog[_userId].length;i++){\n          \n          sender[i]   = transactions[translog[_userId][i]].sender;\n          receiver[i] = transactions[translog[_userId][i]].receiver;\n          amount[i]   = transactions[translog[_userId][i]].amount;\n          datetime[i] = transactions[translog[_userId][i]].datetime;\n\n          emit check(sender[i], receiver[i],amount[i], datetime[i]);\n        }\n        \n        return (sender, receiver,amount,datetime);\n    }\n    //ReceiveTranscationHistory\n    function getreceivetranscationhistory(string memory _userId) public returns(string[] memory, \n                                                                                string[] memory,\n                                                                                uint256[] memory,\n                                                                                uint256[] memory)\n    {\n       //len stores the total number of transcation done by the user.\n                      uint256 len = receivetrans[_userId].length;\n        string[]  memory sender   = new string[] (len);\n        string[]  memory receiver = new string[] (len);\n        uint256[] memory amount   = new uint256[](len);\n        uint256[] memory datetime = new uint256[](len);\n\n        for(uint256 i=0;i<receivetrans[_userId].length;i++){\n          \n          sender[i]   = transactions[receivetrans[_userId][i]].sender;\n          receiver[i] = transactions[receivetrans[_userId][i]].receiver;\n          amount[i]   = transactions[receivetrans[_userId][i]].amount;\n          datetime[i] = transactions[receivetrans[_userId][i]].datetime;\n\n          emit check(sender[i], receiver[i],amount[i], datetime[i]);\n        }\n        \n        return (sender,receiver,amount,datetime);\n\n\n    }\n\n   \n   \n\n    constructor() payable{}\n\n    receive() external payable {}\n\n    function checktransfertype(string memory str1,string memory str2)public pure returns (bool) {\n        return keccak256(abi.encodePacked(str1)) == keccak256(abi.encodePacked(str2));\n    }\n    // Transfer Money\n    function transfermoney(\n        string memory _Sname, \n        string memory _S_userid, \n        string memory _Rname, \n        string memory _R_userid,\n        string memory transtype,  \n        uint256 amt) external payable{\n                \n            address payable temp;\n            uint256 amount =0;\n            //TransferType    -   subsidy allocation  \n            //petrol          =    20%\n            //Food            =    20%\n            //LPG             =    15%\n            //1000000000000000000\n             \n             if(getuserbool(_S_userid, _Sname) && getuserbool(_R_userid,_Rname)){\n                 //Retrieve address of receiver\n                 temp = getuserAddr(_R_userid);\n\n                if(checktransfertype(\"petrol\",transtype)){\n                    //deducting 20 % amount total amount \n                    amount = (amt*20)/100;\n                    amt = amt - amount;\n                    temp.transfer(amt);\n                    transcationStatus = true;\n                    uint256 time = block.timestamp;\n                    storeTransactionDetails(_S_userid, _Sname, _Rname, _R_userid, amt, transtype, time );\n       \n                    emit status(transcationStatus , amt);\n                }\n                \n                else if(checktransfertype(\"food\",transtype)){\n                    \n                    //deducting 20 % amount total amount \n                    amount = (amt*20)/100;\n                    amt = amt - amount;\n                    temp.transfer(amt);\n                    transcationStatus = true;\n                    uint256 time = block.timestamp;\n                    storeTransactionDetails(_S_userid, _Sname, _Rname, _R_userid, amt, transtype, time );\n       \n                    emit status(transcationStatus , amt);\n                }\n                \n                else if(checktransfertype(\"LPG\",transtype)){\n                    \n                    //deducting 20 % amount total amount \n                    amount = (amt*15)/100;\n                    amt = amt - amount;\n                    temp.transfer(amt);\n                    transcationStatus = true;\n                    uint256 time = block.timestamp;\n                    storeTransactionDetails(_S_userid, _Sname, _Rname, _R_userid, amt, transtype, time );\n       \n                    emit status(transcationStatus , amt);\n                }\n                \n                else{\n\n                    temp.transfer(amt);\n                    transcationStatus = true;\n                    uint256 time = block.timestamp;\n                    storeTransactionDetails(_S_userid, _Sname, _Rname, _R_userid, amt, transtype, time );\n       \n                    emit status(transcationStatus, amt);\n                }\n            }\n        }\n\n        function getwalletbalance(address addr) public view returns(address) {\n\n        }\n\n\n\n        function sendsubsidyfund(uint amt) external payable{\n            string memory _user_id = \"\";\n            address payable tempAdd;\n\n            for(uint256 j=0;j<k;j++){\n                _user_id = allUserId[j];\n                tempAdd = usersWithAddress[_user_id];\n                tempAdd.transfer(amt);\n                emit loopchk (_user_id,tempAdd);\n            }\n        }\n\n    //function getloan(string memory _userId)\n\n\n//  contracts need to develop\n//  +---------+------------------------------+----------------+\n//  | Number  |      Contract Name           |    Status      |\n//  |---------+------------------------------+----------------+\n//  |  1      |     user registration        |     Done     |\n//  |  2      |      Retrieve users          |     Done     |\n//  |  3      |  Store transcations details  |     Done     |\n//  |  4      | Retrieve transcation details |     Done     |\n//  |  5      |       Transfermoney          |     Done     |\n//  |  6      |       Receive History        |     Done     |\n//  |  7      |       Get Loan               |     pending  |\n//  |  8      |       Refugee subsidy fund   |     Done     |\n//  |  9      |       Circle of Trust        |     pending  |\n//  |  10     |       User Login             |     Done     |\n//  |  11     |     Business Registration    |     pending  |\n//  |  12     |    Government Functionalities|     pending  |\n//  +---------+------------------------------+----------------+\n//\n//\n\n}",
  "sourcePath": "/Users/gowthambujju/Gowtham/developement/reactapp/Refugee_git/refugee_system/src/contracts/Refugee.sol",
  "compiler": {
    "name": "solc",
    "version": "0.8.18+commit.87f61d96.Emscripten.clang"
  },
  "schemaVersion": "3.4.11",
  "updatedAt": "2023-02-11T13:13:52.100Z",
  "devdoc": {
    "kind": "dev",
    "methods": {},
    "version": 1
  },
  "userdoc": {
    "kind": "user",
    "methods": {},
    "version": 1
  }
}