{
  "contractName": "Refugee",
  "abi": [
    {
      "anonymous": false,
      "inputs": [
        {
          "indexed": false,
          "internalType": "string",
          "name": "message",
          "type": "string"
        }
      ],
      "name": "createduse",
      "type": "event"
    },
    {
      "anonymous": false,
      "inputs": [
        {
          "indexed": false,
          "internalType": "string",
          "name": "UserId",
          "type": "string"
        },
        {
          "indexed": false,
          "internalType": "string",
          "name": "fName",
          "type": "string"
        },
        {
          "indexed": false,
          "internalType": "string",
          "name": "lName",
          "type": "string"
        },
        {
          "indexed": false,
          "internalType": "string",
          "name": "dob",
          "type": "string"
        },
        {
          "indexed": false,
          "internalType": "string",
          "name": "mobileno",
          "type": "string"
        },
        {
          "indexed": false,
          "internalType": "string",
          "name": "nationality",
          "type": "string"
        },
        {
          "indexed": false,
          "internalType": "uint256",
          "name": "age",
          "type": "uint256"
        }
      ],
      "name": "createduser",
      "type": "event"
    },
    {
      "constant": true,
      "inputs": [
        {
          "internalType": "uint256",
          "name": "",
          "type": "uint256"
        }
      ],
      "name": "allUserId",
      "outputs": [
        {
          "internalType": "string",
          "name": "",
          "type": "string"
        }
      ],
      "payable": false,
      "stateMutability": "view",
      "type": "function"
    },
    {
      "constant": true,
      "inputs": [],
      "name": "k",
      "outputs": [
        {
          "internalType": "uint256",
          "name": "",
          "type": "uint256"
        }
      ],
      "payable": false,
      "stateMutability": "view",
      "type": "function"
    },
    {
      "constant": true,
      "inputs": [],
      "name": "noofUser",
      "outputs": [
        {
          "internalType": "uint256",
          "name": "",
          "type": "uint256"
        }
      ],
      "payable": false,
      "stateMutability": "view",
      "type": "function"
    },
    {
      "constant": true,
      "inputs": [
        {
          "internalType": "string",
          "name": "",
          "type": "string"
        }
      ],
      "name": "users",
      "outputs": [
        {
          "internalType": "string",
          "name": "UserId",
          "type": "string"
        },
        {
          "internalType": "string",
          "name": "fName",
          "type": "string"
        },
        {
          "internalType": "string",
          "name": "lName",
          "type": "string"
        },
        {
          "internalType": "string",
          "name": "dob",
          "type": "string"
        },
        {
          "internalType": "string",
          "name": "mobileno",
          "type": "string"
        },
        {
          "internalType": "string",
          "name": "nationality",
          "type": "string"
        },
        {
          "internalType": "uint256",
          "name": "age",
          "type": "uint256"
        }
      ],
      "payable": false,
      "stateMutability": "view",
      "type": "function"
    },
    {
      "constant": true,
      "inputs": [
        {
          "internalType": "string",
          "name": "",
          "type": "string"
        }
      ],
      "name": "usersWithAddress",
      "outputs": [
        {
          "internalType": "address payable",
          "name": "",
          "type": "address"
        }
      ],
      "payable": false,
      "stateMutability": "view",
      "type": "function"
    },
    {
      "constant": true,
      "inputs": [
        {
          "internalType": "string",
          "name": "_userId",
          "type": "string"
        }
      ],
      "name": "chkexisitinguserId",
      "outputs": [
        {
          "internalType": "bool",
          "name": "",
          "type": "bool"
        }
      ],
      "payable": false,
      "stateMutability": "view",
      "type": "function"
    },
    {
      "constant": false,
      "inputs": [
        {
          "internalType": "string",
          "name": "_userId",
          "type": "string"
        },
        {
          "internalType": "string",
          "name": "_fName",
          "type": "string"
        },
        {
          "internalType": "string",
          "name": "_lName",
          "type": "string"
        },
        {
          "internalType": "string",
          "name": "_mobile",
          "type": "string"
        },
        {
          "internalType": "string",
          "name": "_dob",
          "type": "string"
        },
        {
          "internalType": "string",
          "name": "_nationality",
          "type": "string"
        },
        {
          "internalType": "uint256",
          "name": "_age",
          "type": "uint256"
        }
      ],
      "name": "createUser",
      "outputs": [],
      "payable": false,
      "stateMutability": "nonpayable",
      "type": "function"
    }
  ],
  "bytecode": "0x608060405260008055600060015534801561001957600080fd5b506116ba806100296000396000f3fe608060405234801561001057600080fd5b506004361061007d5760003560e01c80639f3a8df31161005b5780639f3a8df3146105a7578063b4f40c61146105c5578063d129604b146105e3578063dd74e39f1461099b5761007d565b806301d9e85014610082578063689e1c031461017d5780638365f594146104d4575b600080fd5b61013b6004803603602081101561009857600080fd5b81019080803590602001906401000000008111156100b557600080fd5b8201836020820111156100c757600080fd5b803590602001918460018302840111640100000000831117156100e957600080fd5b91908080601f016020809104026020016040519081016040528093929190818152602001838380828437600081840152601f19601f820116905080830192505050505050509192919290505050610a42565b604051808273ffffffffffffffffffffffffffffffffffffffff1673ffffffffffffffffffffffffffffffffffffffff16815260200191505060405180910390f35b6102366004803603602081101561019357600080fd5b81019080803590602001906401000000008111156101b057600080fd5b8201836020820111156101c257600080fd5b803590602001918460018302840111640100000000831117156101e457600080fd5b91908080601f016020809104026020016040519081016040528093929190818152602001838380828437600081840152601f19601f820116905080830192505050505050509192919290505050610a8b565b6040518080602001806020018060200180602001806020018060200188815260200187810387528e818151815260200191508051906020019080838360005b83811015610290578082015181840152602081019050610275565b50505050905090810190601f1680156102bd5780820380516001836020036101000a031916815260200191505b5087810386528d818151815260200191508051906020019080838360005b838110156102f65780820151818401526020810190506102db565b50505050905090810190601f1680156103235780820380516001836020036101000a031916815260200191505b5087810385528c818151815260200191508051906020019080838360005b8381101561035c578082015181840152602081019050610341565b50505050905090810190601f1680156103895780820380516001836020036101000a031916815260200191505b5087810384528b818151815260200191508051906020019080838360005b838110156103c25780820151818401526020810190506103a7565b50505050905090810190601f1680156103ef5780820380516001836020036101000a031916815260200191505b5087810383528a818151815260200191508051906020019080838360005b8381101561042857808201518184015260208101905061040d565b50505050905090810190601f1680156104555780820380516001836020036101000a031916815260200191505b50878103825289818151815260200191508051906020019080838360005b8381101561048e578082015181840152602081019050610473565b50505050905090810190601f1680156104bb5780820380516001836020036101000a031916815260200191505b509d505050505050505050505050505060405180910390f35b61058d600480360360208110156104ea57600080fd5b810190808035906020019064010000000081111561050757600080fd5b82018360208201111561051957600080fd5b8035906020019184600183028401116401000000008311171561053b57600080fd5b91908080601f016020809104026020016040519081016040528093929190818152602001838380828437600081840152601f19601f820116905080830192505050505050509192919290505050610e73565b604051808215151515815260200191505060405180910390f35b6105af610fae565b6040518082815260200191505060405180910390f35b6105cd610fb4565b6040518082815260200191505060405180910390f35b610999600480360360e08110156105f957600080fd5b810190808035906020019064010000000081111561061657600080fd5b82018360208201111561062857600080fd5b8035906020019184600183028401116401000000008311171561064a57600080fd5b91908080601f016020809104026020016040519081016040528093929190818152602001838380828437600081840152601f19601f820116905080830192505050505050509192919290803590602001906401000000008111156106ad57600080fd5b8201836020820111156106bf57600080fd5b803590602001918460018302840111640100000000831117156106e157600080fd5b91908080601f016020809104026020016040519081016040528093929190818152602001838380828437600081840152601f19601f8201169050808301925050505050505091929192908035906020019064010000000081111561074457600080fd5b82018360208201111561075657600080fd5b8035906020019184600183028401116401000000008311171561077857600080fd5b91908080601f016020809104026020016040519081016040528093929190818152602001838380828437600081840152601f19601f820116905080830192505050505050509192919290803590602001906401000000008111156107db57600080fd5b8201836020820111156107ed57600080fd5b8035906020019184600183028401116401000000008311171561080f57600080fd5b91908080601f016020809104026020016040519081016040528093929190818152602001838380828437600081840152601f19601f8201169050808301925050505050505091929192908035906020019064010000000081111561087257600080fd5b82018360208201111561088457600080fd5b803590602001918460018302840111640100000000831117156108a657600080fd5b91908080601f016020809104026020016040519081016040528093929190818152602001838380828437600081840152601f19601f8201169050808301925050505050505091929192908035906020019064010000000081111561090957600080fd5b82018360208201111561091b57600080fd5b8035906020019184600183028401116401000000008311171561093d57600080fd5b91908080601f016020809104026020016040519081016040528093929190818152602001838380828437600081840152601f19601f82011690508083019250505050505050919291929080359060200190929190505050610fba565b005b6109c7600480360360208110156109b157600080fd5b810190808035906020019092919050505061148a565b6040518080602001828103825283818151815260200191508051906020019080838360005b83811015610a075780820151818401526020810190506109ec565b50505050905090810190601f168015610a345780820380516001836020036101000a031916815260200191505b509250505060405180910390f35b6002818051602081018201805184825260208301602085012081835280955050505050506000915054906101000a900473ffffffffffffffffffffffffffffffffffffffff1681565b600381805160208101820180518482526020830160208501208183528095505050505050600091509050806000018054600181600116156101000203166002900480601f016020809104026020016040519081016040528092919081815260200182805460018160011615610100020316600290048015610b4d5780601f10610b2257610100808354040283529160200191610b4d565b820191906000526020600020905b815481529060010190602001808311610b3057829003601f168201915b505050505090806001018054600181600116156101000203166002900480601f016020809104026020016040519081016040528092919081815260200182805460018160011615610100020316600290048015610beb5780601f10610bc057610100808354040283529160200191610beb565b820191906000526020600020905b815481529060010190602001808311610bce57829003601f168201915b505050505090806002018054600181600116156101000203166002900480601f016020809104026020016040519081016040528092919081815260200182805460018160011615610100020316600290048015610c895780601f10610c5e57610100808354040283529160200191610c89565b820191906000526020600020905b815481529060010190602001808311610c6c57829003601f168201915b505050505090806003018054600181600116156101000203166002900480601f016020809104026020016040519081016040528092919081815260200182805460018160011615610100020316600290048015610d275780601f10610cfc57610100808354040283529160200191610d27565b820191906000526020600020905b815481529060010190602001808311610d0a57829003601f168201915b505050505090806004018054600181600116156101000203166002900480601f016020809104026020016040519081016040528092919081815260200182805460018160011615610100020316600290048015610dc55780601f10610d9a57610100808354040283529160200191610dc5565b820191906000526020600020905b815481529060010190602001808311610da857829003601f168201915b505050505090806005018054600181600116156101000203166002900480601f016020809104026020016040519081016040528092919081815260200182805460018160011615610100020316600290048015610e635780601f10610e3857610100808354040283529160200191610e63565b820191906000526020600020905b815481529060010190602001808311610e4657829003601f168201915b5050505050908060060154905087565b6000806000905060008090505b600154811015610fa457600460008281526020019081526020016000206040516020018082805460018160011615610100020316600290048015610efb5780601f10610ed9576101008083540402835291820191610efb565b820191906000526020600020905b815481529060010190602001808311610ee7575b505091505060405160208183030381529060405280519060200120846040516020018082805190602001908083835b60208310610f4d5780518252602082019150602081019050602083039250610f2a565b6001836020036101000a038019825116818451168082178552505050505050905001915050604051602081830303815290604052805190602001201415610f975760019150610fa4565b8080600101915050610e80565b5080915050919050565b60005481565b60015481565b610fc387610e73565b611435576040518060e00160405280888152602001878152602001868152602001858152602001848152602001838152602001828152506003886040518082805190602001908083835b60208310611030578051825260208201915060208101905060208303925061100d565b6001836020036101000a0380198251168184511680821785525050505050509050019150509081526020016040518091039020600082015181600001908051906020019061107f92919061153a565b50602082015181600101908051906020019061109c92919061153a565b5060408201518160020190805190602001906110b992919061153a565b5060608201518160030190805190602001906110d692919061153a565b5060808201518160040190805190602001906110f392919061153a565b5060a082015181600501908051906020019061111092919061153a565b5060c0820151816006015590505060008081548092919060010191905055508660046000600154815260200190815260200160002090805190602001906111589291906115ba565b506001600081548092919060010191905055507f627e71bac462770bfc5a382c57e1737150bee05e8a92054aa625747a45e229c0878787878787876040518080602001806020018060200180602001806020018060200188815260200187810387528e818151815260200191508051906020019080838360005b838110156111ed5780820151818401526020810190506111d2565b50505050905090810190601f16801561121a5780820380516001836020036101000a031916815260200191505b5087810386528d818151815260200191508051906020019080838360005b83811015611253578082015181840152602081019050611238565b50505050905090810190601f1680156112805780820380516001836020036101000a031916815260200191505b5087810385528c818151815260200191508051906020019080838360005b838110156112b957808201518184015260208101905061129e565b50505050905090810190601f1680156112e65780820380516001836020036101000a031916815260200191505b5087810384528b818151815260200191508051906020019080838360005b8381101561131f578082015181840152602081019050611304565b50505050905090810190601f16801561134c5780820380516001836020036101000a031916815260200191505b5087810383528a818151815260200191508051906020019080838360005b8381101561138557808201518184015260208101905061136a565b50505050905090810190601f1680156113b25780820380516001836020036101000a031916815260200191505b50878103825289818151815260200191508051906020019080838360005b838110156113eb5780820151818401526020810190506113d0565b50505050905090810190601f1680156114185780820380516001836020036101000a031916815260200191505b509d505050505050505050505050505060405180910390a1611481565b7f598c714099ae711e2b25e43a3451066de7576b0bc7a2289e086af91be7665fc16040518080602001828103825260268152602001806116606026913960400191505060405180910390a15b50505050505050565b60046020528060005260406000206000915090508054600181600116156101000203166002900480601f0160208091040260200160405190810160405280929190818152602001828054600181600116156101000203166002900480156115325780601f1061150757610100808354040283529160200191611532565b820191906000526020600020905b81548152906001019060200180831161151557829003601f168201915b505050505081565b828054600181600116156101000203166002900490600052602060002090601f016020900481019282601f1061157b57805160ff19168380011785556115a9565b828001600101855582156115a9579182015b828111156115a857825182559160200191906001019061158d565b5b5090506115b6919061163a565b5090565b828054600181600116156101000203166002900490600052602060002090601f016020900481019282601f106115fb57805160ff1916838001178555611629565b82800160010185558215611629579182015b8281111561162857825182559160200191906001019061160d565b5b509050611636919061163a565b5090565b61165c91905b80821115611658576000816000905550600101611640565b5090565b9056fe656c736520697320776f726b696e6720757365726e616d6520616c7265616479206578697374a265627a7a72315820bf85268f8f06692919dc8d66c1f9e88616d8be6fed2989fb15bb2441af44e3db64736f6c63430005100032",
  "source": "// SPDX-License-Identifier: UNLICENSED\npragma solidity ^0.5.16;\ncontract Refugee {\n    // Register user\n    struct User {\n        string UserId;\n        string fName;\n        string lName;\n        string dob;\n        string mobileno;\n        string nationality;\n        uint256 age;  \n    }\n    // Variables - uint\n    uint256 public noofUser = 0;\n    uint256 public k=0;\n\n    //mapping\n    mapping (string  => address payable) public usersWithAddress;\n    mapping (string  => User) public users;\n    mapping (uint256 => string) public allUserId;\n     \n    //events\n    event createduser(string UserId, string fName,string lName,string dob,string mobileno,string nationality,uint256 age);\n    event createduse(string message);\n\n    function chkexisitinguserId(string memory _userId) public view returns (bool) {\n        bool isexist = false;\n        for(uint a =0;a<k;a++){\n            if(keccak256(abi.encodePacked(_userId)) == keccak256(abi.encodePacked(allUserId[a]))){\n                isexist = true;\n                break;\n            }\n        }\n         return isexist;\n    }\n\n    // create a users \n    function createUser(string memory _userId, string memory _fName, string memory _lName, string memory _mobile, string memory _dob, string memory _nationality, uint256 _age) public {\n        if(!chkexisitinguserId(_userId)){\n            users[_userId] = User(_userId, _fName, _lName, _mobile, _dob, _nationality, _age);\n            noofUser++;\n            allUserId[k] = _userId;\n            k++;\n            emit createduser(_userId, _fName, _lName, _mobile, _dob, _nationality, _age);\n        }else{\n            emit createduse(\"else is working username already exist\");\n        }\n    }\n} ",
  "sourcePath": "/Users/gowthambujju/Gowtham/developement/reactapp/RefugeeV4/backend/Refugee/src/contracts/Refugee.sol",
  "compiler": {
    "name": "solc",
    "version": "0.5.16+commit.9c3226ce.Emscripten.clang"
  },
  "schemaVersion": "3.4.11",
  "updatedAt": "2023-01-17T12:56:07.219Z",
  "networkType": "ethereum",
  "devdoc": {
    "methods": {}
  },
  "userdoc": {
    "methods": {}
  }
}