{
  "contractName": "trans",
  "abi": [
    {
      "inputs": [],
      "stateMutability": "payable",
      "type": "constructor"
    },
    {
      "anonymous": false,
      "inputs": [
        {
          "indexed": false,
          "internalType": "string",
          "name": "sender",
          "type": "string"
        },
        {
          "indexed": false,
          "internalType": "string",
          "name": "receiver",
          "type": "string"
        },
        {
          "indexed": false,
          "internalType": "uint256",
          "name": "amount",
          "type": "uint256"
        },
        {
          "indexed": false,
          "internalType": "uint256",
          "name": "datetime",
          "type": "uint256"
        }
      ],
      "name": "check",
      "type": "event"
    },
    {
      "anonymous": false,
      "inputs": [
        {
          "indexed": false,
          "internalType": "bytes32",
          "name": "s1",
          "type": "bytes32"
        }
      ],
      "name": "flag",
      "type": "event"
    },
    {
      "anonymous": false,
      "inputs": [
        {
          "indexed": false,
          "internalType": "bytes32",
          "name": "username",
          "type": "bytes32"
        },
        {
          "indexed": false,
          "internalType": "bytes32",
          "name": "password",
          "type": "bytes32"
        }
      ],
      "name": "logindetails",
      "type": "event"
    },
    {
      "anonymous": false,
      "inputs": [
        {
          "indexed": false,
          "internalType": "string",
          "name": "str1",
          "type": "string"
        },
        {
          "indexed": false,
          "internalType": "address",
          "name": "ad1",
          "type": "address"
        }
      ],
      "name": "loopchk",
      "type": "event"
    },
    {
      "anonymous": false,
      "inputs": [
        {
          "indexed": false,
          "internalType": "bool",
          "name": "transcationStatus",
          "type": "bool"
        },
        {
          "indexed": false,
          "internalType": "uint256",
          "name": "subsidy",
          "type": "uint256"
        }
      ],
      "name": "status",
      "type": "event"
    },
    {
      "inputs": [
        {
          "internalType": "uint256",
          "name": "",
          "type": "uint256"
        }
      ],
      "name": "allUserId",
      "outputs": [
        {
          "internalType": "string",
          "name": "",
          "type": "string"
        }
      ],
      "stateMutability": "view",
      "type": "function"
    },
    {
      "inputs": [
        {
          "internalType": "string",
          "name": "",
          "type": "string"
        }
      ],
      "name": "passwordcreditainals",
      "outputs": [
        {
          "internalType": "bytes32",
          "name": "",
          "type": "bytes32"
        }
      ],
      "stateMutability": "view",
      "type": "function"
    },
    {
      "inputs": [
        {
          "internalType": "string",
          "name": "",
          "type": "string"
        },
        {
          "internalType": "uint256",
          "name": "",
          "type": "uint256"
        }
      ],
      "name": "receivetrans",
      "outputs": [
        {
          "internalType": "bytes32",
          "name": "",
          "type": "bytes32"
        }
      ],
      "stateMutability": "view",
      "type": "function"
    },
    {
      "inputs": [
        {
          "internalType": "bytes32",
          "name": "",
          "type": "bytes32"
        }
      ],
      "name": "transactions",
      "outputs": [
        {
          "internalType": "string",
          "name": "sender",
          "type": "string"
        },
        {
          "internalType": "string",
          "name": "receiver",
          "type": "string"
        },
        {
          "internalType": "uint256",
          "name": "amount",
          "type": "uint256"
        },
        {
          "internalType": "string",
          "name": "message",
          "type": "string"
        },
        {
          "internalType": "uint256",
          "name": "datetime",
          "type": "uint256"
        }
      ],
      "stateMutability": "view",
      "type": "function"
    },
    {
      "inputs": [
        {
          "internalType": "string",
          "name": "",
          "type": "string"
        },
        {
          "internalType": "uint256",
          "name": "",
          "type": "uint256"
        }
      ],
      "name": "translog",
      "outputs": [
        {
          "internalType": "bytes32",
          "name": "",
          "type": "bytes32"
        }
      ],
      "stateMutability": "view",
      "type": "function"
    },
    {
      "inputs": [
        {
          "internalType": "string",
          "name": "",
          "type": "string"
        }
      ],
      "name": "usernamecreditainals",
      "outputs": [
        {
          "internalType": "bytes32",
          "name": "",
          "type": "bytes32"
        }
      ],
      "stateMutability": "view",
      "type": "function"
    },
    {
      "inputs": [
        {
          "internalType": "string",
          "name": "",
          "type": "string"
        }
      ],
      "name": "users",
      "outputs": [
        {
          "internalType": "string",
          "name": "fName",
          "type": "string"
        },
        {
          "internalType": "string",
          "name": "lName",
          "type": "string"
        },
        {
          "internalType": "string",
          "name": "mobile",
          "type": "string"
        },
        {
          "internalType": "string",
          "name": "dob",
          "type": "string"
        },
        {
          "internalType": "uint256",
          "name": "age",
          "type": "uint256"
        }
      ],
      "stateMutability": "view",
      "type": "function"
    },
    {
      "inputs": [
        {
          "internalType": "string",
          "name": "",
          "type": "string"
        }
      ],
      "name": "usersWithAddress",
      "outputs": [
        {
          "internalType": "address payable",
          "name": "",
          "type": "address"
        }
      ],
      "stateMutability": "view",
      "type": "function"
    },
    {
      "stateMutability": "payable",
      "type": "receive"
    },
    {
      "inputs": [
        {
          "internalType": "string",
          "name": "_userId",
          "type": "string"
        },
        {
          "internalType": "string",
          "name": "_fName",
          "type": "string"
        },
        {
          "internalType": "string",
          "name": "_lName",
          "type": "string"
        },
        {
          "internalType": "string",
          "name": "_mobile",
          "type": "string"
        },
        {
          "internalType": "string",
          "name": "_dob",
          "type": "string"
        },
        {
          "internalType": "uint256",
          "name": "_age",
          "type": "uint256"
        }
      ],
      "name": "createUser",
      "outputs": [],
      "stateMutability": "nonpayable",
      "type": "function"
    },
    {
      "inputs": [
        {
          "internalType": "string",
          "name": "_userId",
          "type": "string"
        }
      ],
      "name": "chkexisitinguserId",
      "outputs": [
        {
          "internalType": "bool",
          "name": "",
          "type": "bool"
        }
      ],
      "stateMutability": "view",
      "type": "function"
    },
    {
      "inputs": [
        {
          "internalType": "string",
          "name": "_userId",
          "type": "string"
        },
        {
          "internalType": "string",
          "name": "_Sname",
          "type": "string"
        }
      ],
      "name": "getuserbool",
      "outputs": [
        {
          "internalType": "bool",
          "name": "",
          "type": "bool"
        }
      ],
      "stateMutability": "view",
      "type": "function"
    },
    {
      "inputs": [
        {
          "internalType": "string",
          "name": "_userId",
          "type": "string"
        },
        {
          "internalType": "address payable",
          "name": "_addr",
          "type": "address"
        }
      ],
      "name": "mapaddress",
      "outputs": [],
      "stateMutability": "nonpayable",
      "type": "function"
    },
    {
      "inputs": [
        {
          "internalType": "string",
          "name": "_userId",
          "type": "string"
        }
      ],
      "name": "getuserAddr",
      "outputs": [
        {
          "internalType": "address payable",
          "name": "",
          "type": "address"
        }
      ],
      "stateMutability": "view",
      "type": "function"
    },
    {
      "inputs": [
        {
          "internalType": "string",
          "name": "_userId",
          "type": "string"
        }
      ],
      "name": "getUser",
      "outputs": [
        {
          "internalType": "string",
          "name": "",
          "type": "string"
        },
        {
          "internalType": "string",
          "name": "",
          "type": "string"
        },
        {
          "internalType": "string",
          "name": "",
          "type": "string"
        },
        {
          "internalType": "string",
          "name": "",
          "type": "string"
        },
        {
          "internalType": "uint256",
          "name": "",
          "type": "uint256"
        }
      ],
      "stateMutability": "view",
      "type": "function"
    },
    {
      "inputs": [],
      "name": "getnoofUser",
      "outputs": [
        {
          "internalType": "uint256",
          "name": "",
          "type": "uint256"
        }
      ],
      "stateMutability": "view",
      "type": "function"
    },
    {
      "inputs": [
        {
          "internalType": "string",
          "name": "_user_Id",
          "type": "string"
        },
        {
          "internalType": "string",
          "name": "_firstname",
          "type": "string"
        },
        {
          "internalType": "string",
          "name": "mobile",
          "type": "string"
        },
        {
          "internalType": "string",
          "name": "dob",
          "type": "string"
        }
      ],
      "name": "createuserNameandpassword",
      "outputs": [],
      "stateMutability": "nonpayable",
      "type": "function"
    },
    {
      "inputs": [
        {
          "internalType": "string",
          "name": "_user_Id",
          "type": "string"
        },
        {
          "internalType": "string",
          "name": "_username",
          "type": "string"
        },
        {
          "internalType": "string",
          "name": "_password",
          "type": "string"
        },
        {
          "internalType": "string",
          "name": "mobile",
          "type": "string"
        },
        {
          "internalType": "string",
          "name": "dob",
          "type": "string"
        }
      ],
      "name": "updateusercreditainals",
      "outputs": [],
      "stateMutability": "nonpayable",
      "type": "function"
    },
    {
      "inputs": [
        {
          "internalType": "string",
          "name": "_userName",
          "type": "string"
        },
        {
          "internalType": "string",
          "name": "_passWord",
          "type": "string"
        },
        {
          "internalType": "string",
          "name": "_userId",
          "type": "string"
        },
        {
          "internalType": "string",
          "name": "mobile",
          "type": "string"
        },
        {
          "internalType": "string",
          "name": "dob",
          "type": "string"
        }
      ],
      "name": "checkusercreditanials",
      "outputs": [
        {
          "internalType": "bool",
          "name": "",
          "type": "bool"
        }
      ],
      "stateMutability": "nonpayable",
      "type": "function"
    },
    {
      "inputs": [
        {
          "internalType": "string",
          "name": "_userId",
          "type": "string"
        },
        {
          "internalType": "string",
          "name": "_sender",
          "type": "string"
        },
        {
          "internalType": "string",
          "name": "_receiver",
          "type": "string"
        },
        {
          "internalType": "string",
          "name": "_recID",
          "type": "string"
        },
        {
          "internalType": "uint256",
          "name": "_amount",
          "type": "uint256"
        },
        {
          "internalType": "string",
          "name": "_message",
          "type": "string"
        },
        {
          "internalType": "uint256",
          "name": "_datetime",
          "type": "uint256"
        }
      ],
      "name": "storeTransactionDetails",
      "outputs": [],
      "stateMutability": "nonpayable",
      "type": "function"
    },
    {
      "inputs": [
        {
          "internalType": "bytes32",
          "name": "_tid",
          "type": "bytes32"
        }
      ],
      "name": "gettranscationid",
      "outputs": [
        {
          "internalType": "string",
          "name": "",
          "type": "string"
        },
        {
          "internalType": "string",
          "name": "",
          "type": "string"
        },
        {
          "internalType": "uint256",
          "name": "",
          "type": "uint256"
        },
        {
          "internalType": "uint256",
          "name": "",
          "type": "uint256"
        }
      ],
      "stateMutability": "view",
      "type": "function"
    },
    {
      "inputs": [
        {
          "internalType": "string",
          "name": "_userId",
          "type": "string"
        }
      ],
      "name": "gettranscationhistory",
      "outputs": [
        {
          "internalType": "string[]",
          "name": "",
          "type": "string[]"
        },
        {
          "internalType": "string[]",
          "name": "",
          "type": "string[]"
        },
        {
          "internalType": "uint256[]",
          "name": "",
          "type": "uint256[]"
        },
        {
          "internalType": "uint256[]",
          "name": "",
          "type": "uint256[]"
        }
      ],
      "stateMutability": "nonpayable",
      "type": "function"
    },
    {
      "inputs": [
        {
          "internalType": "string",
          "name": "_userId",
          "type": "string"
        }
      ],
      "name": "getreceivetranscationhistory",
      "outputs": [
        {
          "internalType": "string[]",
          "name": "",
          "type": "string[]"
        },
        {
          "internalType": "string[]",
          "name": "",
          "type": "string[]"
        },
        {
          "internalType": "uint256[]",
          "name": "",
          "type": "uint256[]"
        },
        {
          "internalType": "uint256[]",
          "name": "",
          "type": "uint256[]"
        }
      ],
      "stateMutability": "nonpayable",
      "type": "function"
    },
    {
      "inputs": [
        {
          "internalType": "string",
          "name": "str1",
          "type": "string"
        },
        {
          "internalType": "string",
          "name": "str2",
          "type": "string"
        }
      ],
      "name": "checktransfertype",
      "outputs": [
        {
          "internalType": "bool",
          "name": "",
          "type": "bool"
        }
      ],
      "stateMutability": "pure",
      "type": "function"
    },
    {
      "inputs": [
        {
          "internalType": "string",
          "name": "_Sname",
          "type": "string"
        },
        {
          "internalType": "string",
          "name": "_S_userid",
          "type": "string"
        },
        {
          "internalType": "string",
          "name": "_Rname",
          "type": "string"
        },
        {
          "internalType": "string",
          "name": "_R_userid",
          "type": "string"
        },
        {
          "internalType": "string",
          "name": "transtype",
          "type": "string"
        },
        {
          "internalType": "uint256",
          "name": "amt",
          "type": "uint256"
        }
      ],
      "name": "transfermoney",
      "outputs": [],
      "stateMutability": "payable",
      "type": "function"
    },
    {
      "inputs": [
        {
          "internalType": "address",
          "name": "addr",
          "type": "address"
        }
      ],
      "name": "getwalletbalance",
      "outputs": [
        {
          "internalType": "address",
          "name": "",
          "type": "address"
        }
      ],
      "stateMutability": "view",
      "type": "function"
    },
    {
      "inputs": [
        {
          "internalType": "uint256",
          "name": "amt",
          "type": "uint256"
        }
      ],
      "name": "sendsubsidyfund",
      "outputs": [],
      "stateMutability": "payable",
      "type": "function"
    }
  ],
  "bytecode": "0x60806040526000805560006001556000600260006101000a81548160ff0219169083151502179055506000600260016101000a81548160ff021916908315150217905550613fff806100526000396000f3fe6080604052600436106101855760003560e01c8063823ea013116100d1578063af8b32e21161008a578063c37e36d911610064578063c37e36d914610654578063dd74e39f1461067d578063e9a4b444146106ba578063fec8b0fc146106f75761018c565b8063af8b32e2146105be578063b4c5bf14146105da578063bd96cc82146106175761018c565b8063823ea0131461045c5780638365f594146104995780639074584d146104d657806398b6b4e31461051657806398f5800c146105535780639b4d3fe61461057e5761018c565b8063463e514c1161013e578063642f2eaf11610118578063642f2eaf14610388578063689e1c03146103c957806374c15d311461040a57806377d61383146104335761018c565b8063463e514c146102f25780634e1fd0201461032f578063588c56711461034b5761018c565b806301d9e850146101915780630f190e0d146101ce578063221e95511461020e57806322f78d161461024b57806331feb671146102885780633c722af0146102c95761018c565b3661018c57005b600080fd5b34801561019d57600080fd5b506101b860048036038101906101b39190612d12565b610720565b6040516101c59190612d9c565b60405180910390f35b3480156101da57600080fd5b506101f560048036038101906101f09190612ded565b610769565b6040516102059493929190612eb2565b60405180910390f35b34801561021a57600080fd5b5061023560048036038101906102309190612f05565b6108f0565b6040516102429190612f98565b60405180910390f35b34801561025757600080fd5b50610272600480360381019061026d9190612fdf565b610949565b60405161027f919061304a565b60405180910390f35b34801561029457600080fd5b506102af60048036038101906102aa9190612d12565b610990565b6040516102c0959493929190613065565b60405180910390f35b3480156102d557600080fd5b506102f060048036038101906102eb91906130d4565b610c43565b005b3480156102fe57600080fd5b5061031960048036038101906103149190612f05565b610dd4565b6040516103269190612f98565b60405180910390f35b61034960048036038101906103449190613202565b6110b0565b005b34801561035757600080fd5b50610372600480360381019061036d9190612d12565b61124e565b60405161037f9190612d9c565b60405180910390f35b34801561039457600080fd5b506103af60048036038101906103aa9190612ded565b611296565b6040516103c095949392919061322f565b60405180910390f35b3480156103d557600080fd5b506103f060048036038101906103eb9190612d12565b611464565b604051610401959493929190613065565b60405180910390f35b34801561041657600080fd5b50610431600480360381019061042c9190613297565b6116d0565b005b34801561043f57600080fd5b5061045a600480360381019061045591906133b0565b6117e2565b005b34801561046857600080fd5b50610483600480360381019061047e9190612d12565b61187f565b604051610490919061304a565b60405180910390f35b3480156104a557600080fd5b506104c060048036038101906104bb9190612d12565b6118ad565b6040516104cd9190612f98565b60405180910390f35b3480156104e257600080fd5b506104fd60048036038101906104f89190612d12565b61194c565b60405161050d9493929190613681565b60405180910390f35b34801561052257600080fd5b5061053d60048036038101906105389190612d12565b611e81565b60405161054a919061304a565b60405180910390f35b34801561055f57600080fd5b50610568611eaf565b60405161057591906136e2565b60405180910390f35b34801561058a57600080fd5b506105a560048036038101906105a09190612d12565b611eb8565b6040516105b59493929190613681565b60405180910390f35b6105d860048036038101906105d39190613297565b6123ed565b005b3480156105e657600080fd5b5061060160048036038101906105fc91906133b0565b612880565b60405161060e9190612f98565b60405180910390f35b34801561062357600080fd5b5061063e60048036038101906106399190612fdf565b6129cd565b60405161064b919061304a565b60405180910390f35b34801561066057600080fd5b5061067b600480360381019061067691906136fd565b612a14565b005b34801561068957600080fd5b506106a4600480360381019061069f9190613202565b612ab0565b6040516106b191906137d4565b60405180910390f35b3480156106c657600080fd5b506106e160048036038101906106dc9190613834565b612b50565b6040516106ee9190613870565b60405180910390f35b34801561070357600080fd5b5061071e600480360381019061071991906138b7565b612b57565b005b6003818051602081018201805184825260208301602085012081835280955050505050506000915054906101000a900473ffffffffffffffffffffffffffffffffffffffff1681565b6060806000806008600086815260200190815260200160002060000160086000878152602001908152602001600020600101600860008881526020019081526020016000206002015460086000898152602001908152602001600020600401548380546107d590613942565b80601f016020809104026020016040519081016040528092919081815260200182805461080190613942565b801561084e5780601f106108235761010080835404028352916020019161084e565b820191906000526020600020905b81548152906001019060200180831161083157829003601f168201915b5050505050935082805461086190613942565b80601f016020809104026020016040519081016040528092919081815260200182805461088d90613942565b80156108da5780601f106108af576101008083540402835291602001916108da565b820191906000526020600020905b8154815290600101906020018083116108bd57829003601f168201915b5050505050925093509350935093509193509193565b60008160405160200161090391906139af565b604051602081830303815290604052805190602001208360405160200161092a91906139af565b6040516020818303038152906040528051906020012014905092915050565b600982805160208101820180518482526020830160208501208183528095505050505050818154811061097b57600080fd5b90600052602060002001600091509150505481565b6060806060806000806004876040516109a991906139af565b90815260200160405180910390206040518060a00160405290816000820180546109d290613942565b80601f01602080910402602001604051908101604052809291908181526020018280546109fe90613942565b8015610a4b5780601f10610a2057610100808354040283529160200191610a4b565b820191906000526020600020905b815481529060010190602001808311610a2e57829003601f168201915b50505050508152602001600182018054610a6490613942565b80601f0160208091040260200160405190810160405280929190818152602001828054610a9090613942565b8015610add5780601f10610ab257610100808354040283529160200191610add565b820191906000526020600020905b815481529060010190602001808311610ac057829003601f168201915b50505050508152602001600282018054610af690613942565b80601f0160208091040260200160405190810160405280929190818152602001828054610b2290613942565b8015610b6f5780601f10610b4457610100808354040283529160200191610b6f565b820191906000526020600020905b815481529060010190602001808311610b5257829003601f168201915b50505050508152602001600382018054610b8890613942565b80601f0160208091040260200160405190810160405280929190818152602001828054610bb490613942565b8015610c015780601f10610bd657610100808354040283529160200191610c01565b820191906000526020600020905b815481529060010190602001808311610be457829003601f168201915b50505050508152602001600482015481525050905080600001518160200151826040015183606001518460800151955095509550955095505091939590929450565b60008686858585604051602001610c5e9594939291906139e7565b6040516020818303038152906040528051906020012090506040518060a0016040528088815260200187815260200185815260200184815260200183815250600860008381526020019081526020016000206000820151816000019081610cc59190613be6565b506020820151816001019081610cdb9190613be6565b50604082015181600201556060820151816003019081610cfb9190613be6565b5060808201518160040155905050600988604051610d1991906139af565b9081526020016040518091039020819080600181540180825580915050600190039060005260206000200160009091909190915055600a85604051610d5e91906139af565b90815260200160405180910390208190806001815401808255809150506001900390600052602060002001600090919091909150557f78165a4894f86413dbff69a2369c91538379417c3484e158aac3a638ff854f4e81604051610dc2919061304a565b60405180910390a15050505050505050565b600080600484604051610de791906139af565b90815260200160405180910390206040518060a0016040529081600082018054610e1090613942565b80601f0160208091040260200160405190810160405280929190818152602001828054610e3c90613942565b8015610e895780601f10610e5e57610100808354040283529160200191610e89565b820191906000526020600020905b815481529060010190602001808311610e6c57829003601f168201915b50505050508152602001600182018054610ea290613942565b80601f0160208091040260200160405190810160405280929190818152602001828054610ece90613942565b8015610f1b5780601f10610ef057610100808354040283529160200191610f1b565b820191906000526020600020905b815481529060010190602001808311610efe57829003601f168201915b50505050508152602001600282018054610f3490613942565b80601f0160208091040260200160405190810160405280929190818152602001828054610f6090613942565b8015610fad5780601f10610f8257610100808354040283529160200191610fad565b820191906000526020600020905b815481529060010190602001808311610f9057829003601f168201915b50505050508152602001600382018054610fc690613942565b80601f0160208091040260200160405190810160405280929190818152602001828054610ff290613942565b801561103f5780601f106110145761010080835404028352916020019161103f565b820191906000526020600020905b81548152906001019060200180831161102257829003601f168201915b5050505050815260200160048201548152505090508260405160200161106591906139af565b60405160208183030381529060405280519060200120816000015160405160200161109091906139af565b604051602081830303815290604052805190602001201491505092915050565b6000604051806020016040528060008152509050600080600090505b600154811015611248576005600082815260200190815260200160002080546110f490613942565b80601f016020809104026020016040519081016040528092919081815260200182805461112090613942565b801561116d5780601f106111425761010080835404028352916020019161116d565b820191906000526020600020905b81548152906001019060200180831161115057829003601f168201915b5050505050925060038360405161118491906139af565b908152602001604051809103902060009054906101000a900473ffffffffffffffffffffffffffffffffffffffff1691508173ffffffffffffffffffffffffffffffffffffffff166108fc859081150290604051600060405180830381858888f193505050501580156111fb573d6000803e3d6000fd5b507f6d480c897a97ad02bbb75253f9d72e5022ac2e620f6172c24080a26c24ac5b2d838360405161122d929190613d0d565b60405180910390a1808061124090613d6c565b9150506110cc565b50505050565b600060038260405161126091906139af565b908152602001604051809103902060009054906101000a900473ffffffffffffffffffffffffffffffffffffffff169050919050565b60086020528060005260406000206000915090508060000180546112b990613942565b80601f01602080910402602001604051908101604052809291908181526020018280546112e590613942565b80156113325780601f1061130757610100808354040283529160200191611332565b820191906000526020600020905b81548152906001019060200180831161131557829003601f168201915b50505050509080600101805461134790613942565b80601f016020809104026020016040519081016040528092919081815260200182805461137390613942565b80156113c05780601f10611395576101008083540402835291602001916113c0565b820191906000526020600020905b8154815290600101906020018083116113a357829003601f168201915b5050505050908060020154908060030180546113db90613942565b80601f016020809104026020016040519081016040528092919081815260200182805461140790613942565b80156114545780601f1061142957610100808354040283529160200191611454565b820191906000526020600020905b81548152906001019060200180831161143757829003601f168201915b5050505050908060040154905085565b60048180516020810182018051848252602083016020850120818352809550505050505060009150905080600001805461149d90613942565b80601f01602080910402602001604051908101604052809291908181526020018280546114c990613942565b80156115165780601f106114eb57610100808354040283529160200191611516565b820191906000526020600020905b8154815290600101906020018083116114f957829003601f168201915b50505050509080600101805461152b90613942565b80601f016020809104026020016040519081016040528092919081815260200182805461155790613942565b80156115a45780601f10611579576101008083540402835291602001916115a4565b820191906000526020600020905b81548152906001019060200180831161158757829003601f168201915b5050505050908060020180546115b990613942565b80601f01602080910402602001604051908101604052809291908181526020018280546115e590613942565b80156116325780601f1061160757610100808354040283529160200191611632565b820191906000526020600020905b81548152906001019060200180831161161557829003601f168201915b50505050509080600301805461164790613942565b80601f016020809104026020016040519081016040528092919081815260200182805461167390613942565b80156116c05780601f10611695576101008083540402835291602001916116c0565b820191906000526020600020905b8154815290600101906020018083116116a357829003601f168201915b5050505050908060040154905085565b6116d9866118ad565b6117da576040518060a001604052808681526020018581526020018481526020018381526020018281525060048760405161171491906139af565b908152602001604051809103902060008201518160000190816117379190613be6565b50602082015181600101908161174d9190613be6565b5060408201518160020190816117639190613be6565b5060608201518160030190816117799190613be6565b506080820151816004015590505060008081548092919061179990613d6c565b91905055508560056000600154815260200190815260200160002090816117c09190613be6565b50600160008154809291906117d490613d6c565b91905055505b505050505050565b83826040516020016117f5929190613db4565b6040516020818303038152906040528051906020012060068660405161181b91906139af565b9081526020016040518091039020819055508281604051602001611840929190613db4565b6040516020818303038152906040528051906020012060078660405161186691906139af565b9081526020016040518091039020819055505050505050565b6007818051602081018201805184825260208301602085012081835280955050505050506000915090505481565b6000806000905060005b60015481101561194257600560008281526020019081526020016000206040516020016118e49190613e5b565b604051602081830303815290604052805190602001208460405160200161190b91906139af565b604051602081830303815290604052805190602001200361192f5760019150611942565b808061193a90613d6c565b9150506118b7565b5080915050919050565b6060806060806000600a8660405161196491906139af565b908152602001604051809103902080549050905060008167ffffffffffffffff81111561199457611993612be7565b5b6040519080825280602002602001820160405280156119c757816020015b60608152602001906001900390816119b25790505b50905060008267ffffffffffffffff8111156119e6576119e5612be7565b5b604051908082528060200260200182016040528015611a1957816020015b6060815260200190600190039081611a045790505b50905060008367ffffffffffffffff811115611a3857611a37612be7565b5b604051908082528060200260200182016040528015611a665781602001602082028036833780820191505090505b50905060008467ffffffffffffffff811115611a8557611a84612be7565b5b604051908082528060200260200182016040528015611ab35781602001602082028036833780820191505090505b50905060005b600a8b604051611ac991906139af565b908152602001604051809103902080549050811015611e685760086000600a8d604051611af691906139af565b90815260200160405180910390208381548110611b1657611b15613e72565b5b906000526020600020015481526020019081526020016000206000018054611b3d90613942565b80601f0160208091040260200160405190810160405280929190818152602001828054611b6990613942565b8015611bb65780601f10611b8b57610100808354040283529160200191611bb6565b820191906000526020600020905b815481529060010190602001808311611b9957829003601f168201915b5050505050858281518110611bce57611bcd613e72565b5b602002602001018190525060086000600a8d604051611bed91906139af565b90815260200160405180910390208381548110611c0d57611c0c613e72565b5b906000526020600020015481526020019081526020016000206001018054611c3490613942565b80601f0160208091040260200160405190810160405280929190818152602001828054611c6090613942565b8015611cad5780601f10611c8257610100808354040283529160200191611cad565b820191906000526020600020905b815481529060010190602001808311611c9057829003601f168201915b5050505050848281518110611cc557611cc4613e72565b5b602002602001018190525060086000600a8d604051611ce491906139af565b90815260200160405180910390208381548110611d0457611d03613e72565b5b9060005260206000200154815260200190815260200160002060020154838281518110611d3457611d33613e72565b5b60200260200101818152505060086000600a8d604051611d5491906139af565b90815260200160405180910390208381548110611d7457611d73613e72565b5b9060005260206000200154815260200190815260200160002060040154828281518110611da457611da3613e72565b5b6020026020010181815250507f5eee8d1d373bae2f82114eff62ab4e08c5103d71ed4ac639ade9be6fd16596ec858281518110611de457611de3613e72565b5b6020026020010151858381518110611dff57611dfe613e72565b5b6020026020010151858481518110611e1a57611e19613e72565b5b6020026020010151858581518110611e3557611e34613e72565b5b6020026020010151604051611e4d9493929190612eb2565b60405180910390a18080611e6090613d6c565b915050611ab9565b5083838383985098509850985050505050509193509193565b6006818051602081018201805184825260208301602085012081835280955050505050506000915090505481565b60008054905090565b6060806060806000600986604051611ed091906139af565b908152602001604051809103902080549050905060008167ffffffffffffffff811115611f0057611eff612be7565b5b604051908082528060200260200182016040528015611f3357816020015b6060815260200190600190039081611f1e5790505b50905060008267ffffffffffffffff811115611f5257611f51612be7565b5b604051908082528060200260200182016040528015611f8557816020015b6060815260200190600190039081611f705790505b50905060008367ffffffffffffffff811115611fa457611fa3612be7565b5b604051908082528060200260200182016040528015611fd25781602001602082028036833780820191505090505b50905060008467ffffffffffffffff811115611ff157611ff0612be7565b5b60405190808252806020026020018201604052801561201f5781602001602082028036833780820191505090505b50905060005b60098b60405161203591906139af565b9081526020016040518091039020805490508110156123d4576008600060098d60405161206291906139af565b9081526020016040518091039020838154811061208257612081613e72565b5b9060005260206000200154815260200190815260200160002060000180546120a990613942565b80601f01602080910402602001604051908101604052809291908181526020018280546120d590613942565b80156121225780601f106120f757610100808354040283529160200191612122565b820191906000526020600020905b81548152906001019060200180831161210557829003601f168201915b505050505085828151811061213a57612139613e72565b5b60200260200101819052506008600060098d60405161215991906139af565b9081526020016040518091039020838154811061217957612178613e72565b5b9060005260206000200154815260200190815260200160002060010180546121a090613942565b80601f01602080910402602001604051908101604052809291908181526020018280546121cc90613942565b80156122195780601f106121ee57610100808354040283529160200191612219565b820191906000526020600020905b8154815290600101906020018083116121fc57829003601f168201915b505050505084828151811061223157612230613e72565b5b60200260200101819052506008600060098d60405161225091906139af565b908152602001604051809103902083815481106122705761226f613e72565b5b90600052602060002001548152602001908152602001600020600201548382815181106122a05761229f613e72565b5b6020026020010181815250506008600060098d6040516122c091906139af565b908152602001604051809103902083815481106122e0576122df613e72565b5b90600052602060002001548152602001908152602001600020600401548282815181106123105761230f613e72565b5b6020026020010181815250507f5eee8d1d373bae2f82114eff62ab4e08c5103d71ed4ac639ade9be6fd16596ec8582815181106123505761234f613e72565b5b602002602001015185838151811061236b5761236a613e72565b5b602002602001015185848151811061238657612385613e72565b5b60200260200101518585815181106123a1576123a0613e72565b5b60200260200101516040516123b99493929190612eb2565b60405180910390a180806123cc90613d6c565b915050612025565b5083838383985098509850985050505050509193509193565b600080600090506123fe8789610dd4565b8015612410575061240f8587610dd4565b5b156128765761241e8561124e565b915061245f6040518060400160405280600681526020017f706574726f6c0000000000000000000000000000000000000000000000000000815250856108f0565b156125515760646014846124739190613ea1565b61247d9190613f12565b9050808361248b9190613f43565b92508173ffffffffffffffffffffffffffffffffffffffff166108fc849081150290604051600060405180830381858888f193505050501580156124d3573d6000803e3d6000fd5b506001600260006101000a81548160ff0219169083151502179055506000429050612503888a8989888a87610c43565b7f6235374985312041055d9135e83cd42019fa11e16c9a798596f347221688e531600260009054906101000a900460ff1685604051612543929190613f77565b60405180910390a150612875565b6125906040518060400160405280600481526020017f666f6f6400000000000000000000000000000000000000000000000000000000815250856108f0565b156126825760646014846125a49190613ea1565b6125ae9190613f12565b905080836125bc9190613f43565b92508173ffffffffffffffffffffffffffffffffffffffff166108fc849081150290604051600060405180830381858888f19350505050158015612604573d6000803e3d6000fd5b506001600260006101000a81548160ff0219169083151502179055506000429050612634888a8989888a87610c43565b7f6235374985312041055d9135e83cd42019fa11e16c9a798596f347221688e531600260009054906101000a900460ff1685604051612674929190613f77565b60405180910390a150612874565b6126c16040518060400160405280600381526020017f4c50470000000000000000000000000000000000000000000000000000000000815250856108f0565b156127b3576064600f846126d59190613ea1565b6126df9190613f12565b905080836126ed9190613f43565b92508173ffffffffffffffffffffffffffffffffffffffff166108fc849081150290604051600060405180830381858888f19350505050158015612735573d6000803e3d6000fd5b506001600260006101000a81548160ff0219169083151502179055506000429050612765888a8989888a87610c43565b7f6235374985312041055d9135e83cd42019fa11e16c9a798596f347221688e531600260009054906101000a900460ff16856040516127a5929190613f77565b60405180910390a150612873565b8173ffffffffffffffffffffffffffffffffffffffff166108fc849081150290604051600060405180830381858888f193505050501580156127f9573d6000803e3d6000fd5b506001600260006101000a81548160ff0219169083151502179055506000429050612829888a8989888a87610c43565b7f6235374985312041055d9135e83cd42019fa11e16c9a798596f347221688e531600260009054906101000a900460ff1685604051612869929190613f77565b60405180910390a1505b5b5b5b5050505050505050565b600060068460405161289291906139af565b90815260200160405180910390205486846040516020016128b4929190613db4565b6040516020818303038152906040528051906020012014801561291c57506007846040516128e291906139af565b9081526020016040518091039020548583604051602001612904929190613db4565b60405160208183030381529060405280519060200120145b156129b2576001600260016101000a81548160ff0219169083151502179055507f751300901022bb495dcabc18681d032db3c2dc165b1cc166200c59c0b188927260068560405161296d91906139af565b90815260200160405180910390205460078660405161298c91906139af565b9081526020016040518091039020546040516129a9929190613fa0565b60405180910390a15b600260019054906101000a900460ff16905095945050505050565b600a8280516020810182018051848252602083016020850120818352809550505050505081815481106129ff57600080fd5b90600052602060002001600091509150505481565b8382604051602001612a27929190613db4565b60405160208183030381529060405280519060200120600685604051612a4d91906139af565b9081526020016040518091039020819055508281604051602001612a72929190613db4565b60405160208183030381529060405280519060200120600785604051612a9891906139af565b90815260200160405180910390208190555050505050565b60056020528060005260406000206000915090508054612acf90613942565b80601f0160208091040260200160405190810160405280929190818152602001828054612afb90613942565b8015612b485780601f10612b1d57610100808354040283529160200191612b48565b820191906000526020600020905b815481529060010190602001808311612b2b57829003601f168201915b505050505081565b6000919050565b80600383604051612b6891906139af565b908152602001604051809103902060006101000a81548173ffffffffffffffffffffffffffffffffffffffff021916908373ffffffffffffffffffffffffffffffffffffffff1602179055505050565b6000604051905090565b600080fd5b600080fd5b600080fd5b600080fd5b6000601f19601f8301169050919050565b7f4e487b7100000000000000000000000000000000000000000000000000000000600052604160045260246000fd5b612c1f82612bd6565b810181811067ffffffffffffffff82111715612c3e57612c3d612be7565b5b80604052505050565b6000612c51612bb8565b9050612c5d8282612c16565b919050565b600067ffffffffffffffff821115612c7d57612c7c612be7565b5b612c8682612bd6565b9050602081019050919050565b82818337600083830152505050565b6000612cb5612cb084612c62565b612c47565b905082815260208101848484011115612cd157612cd0612bd1565b5b612cdc848285612c93565b509392505050565b600082601f830112612cf957612cf8612bcc565b5b8135612d09848260208601612ca2565b91505092915050565b600060208284031215612d2857612d27612bc2565b5b600082013567ffffffffffffffff811115612d4657612d45612bc7565b5b612d5284828501612ce4565b91505092915050565b600073ffffffffffffffffffffffffffffffffffffffff82169050919050565b6000612d8682612d5b565b9050919050565b612d9681612d7b565b82525050565b6000602082019050612db16000830184612d8d565b92915050565b6000819050919050565b612dca81612db7565b8114612dd557600080fd5b50565b600081359050612de781612dc1565b92915050565b600060208284031215612e0357612e02612bc2565b5b6000612e1184828501612dd8565b91505092915050565b600081519050919050565b600082825260208201905092915050565b60005b83811015612e54578082015181840152602081019050612e39565b60008484015250505050565b6000612e6b82612e1a565b612e758185612e25565b9350612e85818560208601612e36565b612e8e81612bd6565b840191505092915050565b6000819050919050565b612eac81612e99565b82525050565b60006080820190508181036000830152612ecc8187612e60565b90508181036020830152612ee08186612e60565b9050612eef6040830185612ea3565b612efc6060830184612ea3565b95945050505050565b60008060408385031215612f1c57612f1b612bc2565b5b600083013567ffffffffffffffff811115612f3a57612f39612bc7565b5b612f4685828601612ce4565b925050602083013567ffffffffffffffff811115612f6757612f66612bc7565b5b612f7385828601612ce4565b9150509250929050565b60008115159050919050565b612f9281612f7d565b82525050565b6000602082019050612fad6000830184612f89565b92915050565b612fbc81612e99565b8114612fc757600080fd5b50565b600081359050612fd981612fb3565b92915050565b60008060408385031215612ff657612ff5612bc2565b5b600083013567ffffffffffffffff81111561301457613013612bc7565b5b61302085828601612ce4565b925050602061303185828601612fca565b9150509250929050565b61304481612db7565b82525050565b600060208201905061305f600083018461303b565b92915050565b600060a082019050818103600083015261307f8188612e60565b905081810360208301526130938187612e60565b905081810360408301526130a78186612e60565b905081810360608301526130bb8185612e60565b90506130ca6080830184612ea3565b9695505050505050565b600080600080600080600060e0888a0312156130f3576130f2612bc2565b5b600088013567ffffffffffffffff81111561311157613110612bc7565b5b61311d8a828b01612ce4565b975050602088013567ffffffffffffffff81111561313e5761313d612bc7565b5b61314a8a828b01612ce4565b965050604088013567ffffffffffffffff81111561316b5761316a612bc7565b5b6131778a828b01612ce4565b955050606088013567ffffffffffffffff81111561319857613197612bc7565b5b6131a48a828b01612ce4565b94505060806131b58a828b01612fca565b93505060a088013567ffffffffffffffff8111156131d6576131d5612bc7565b5b6131e28a828b01612ce4565b92505060c06131f38a828b01612fca565b91505092959891949750929550565b60006020828403121561321857613217612bc2565b5b600061322684828501612fca565b91505092915050565b600060a08201905081810360008301526132498188612e60565b9050818103602083015261325d8187612e60565b905061326c6040830186612ea3565b818103606083015261327e8185612e60565b905061328d6080830184612ea3565b9695505050505050565b60008060008060008060c087890312156132b4576132b3612bc2565b5b600087013567ffffffffffffffff8111156132d2576132d1612bc7565b5b6132de89828a01612ce4565b965050602087013567ffffffffffffffff8111156132ff576132fe612bc7565b5b61330b89828a01612ce4565b955050604087013567ffffffffffffffff81111561332c5761332b612bc7565b5b61333889828a01612ce4565b945050606087013567ffffffffffffffff81111561335957613358612bc7565b5b61336589828a01612ce4565b935050608087013567ffffffffffffffff81111561338657613385612bc7565b5b61339289828a01612ce4565b92505060a06133a389828a01612fca565b9150509295509295509295565b600080600080600060a086880312156133cc576133cb612bc2565b5b600086013567ffffffffffffffff8111156133ea576133e9612bc7565b5b6133f688828901612ce4565b955050602086013567ffffffffffffffff81111561341757613416612bc7565b5b61342388828901612ce4565b945050604086013567ffffffffffffffff81111561344457613443612bc7565b5b61345088828901612ce4565b935050606086013567ffffffffffffffff81111561347157613470612bc7565b5b61347d88828901612ce4565b925050608086013567ffffffffffffffff81111561349e5761349d612bc7565b5b6134aa88828901612ce4565b9150509295509295909350565b600081519050919050565b600082825260208201905092915050565b6000819050602082019050919050565b600082825260208201905092915050565b60006134ff82612e1a565b61350981856134e3565b9350613519818560208601612e36565b61352281612bd6565b840191505092915050565b600061353983836134f4565b905092915050565b6000602082019050919050565b6000613559826134b7565b61356381856134c2565b935083602082028501613575856134d3565b8060005b858110156135b15784840389528151613592858261352d565b945061359d83613541565b925060208a01995050600181019050613579565b50829750879550505050505092915050565b600081519050919050565b600082825260208201905092915050565b6000819050602082019050919050565b6135f881612e99565b82525050565b600061360a83836135ef565b60208301905092915050565b6000602082019050919050565b600061362e826135c3565b61363881856135ce565b9350613643836135df565b8060005b8381101561367457815161365b88826135fe565b975061366683613616565b925050600181019050613647565b5085935050505092915050565b6000608082019050818103600083015261369b818761354e565b905081810360208301526136af818661354e565b905081810360408301526136c38185613623565b905081810360608301526136d78184613623565b905095945050505050565b60006020820190506136f76000830184612ea3565b92915050565b6000806000806080858703121561371757613716612bc2565b5b600085013567ffffffffffffffff81111561373557613734612bc7565b5b61374187828801612ce4565b945050602085013567ffffffffffffffff81111561376257613761612bc7565b5b61376e87828801612ce4565b935050604085013567ffffffffffffffff81111561378f5761378e612bc7565b5b61379b87828801612ce4565b925050606085013567ffffffffffffffff8111156137bc576137bb612bc7565b5b6137c887828801612ce4565b91505092959194509250565b600060208201905081810360008301526137ee8184612e60565b905092915050565b600061380182612d5b565b9050919050565b613811816137f6565b811461381c57600080fd5b50565b60008135905061382e81613808565b92915050565b60006020828403121561384a57613849612bc2565b5b60006138588482850161381f565b91505092915050565b61386a816137f6565b82525050565b60006020820190506138856000830184613861565b92915050565b61389481612d7b565b811461389f57600080fd5b50565b6000813590506138b18161388b565b92915050565b600080604083850312156138ce576138cd612bc2565b5b600083013567ffffffffffffffff8111156138ec576138eb612bc7565b5b6138f885828601612ce4565b9250506020613909858286016138a2565b9150509250929050565b7f4e487b7100000000000000000000000000000000000000000000000000000000600052602260045260246000fd5b6000600282049050600182168061395a57607f821691505b60208210810361396d5761396c613913565b5b50919050565b600081905092915050565b600061398982612e1a565b6139938185613973565b93506139a3818560208601612e36565b80840191505092915050565b60006139bb828461397e565b915081905092915050565b6000819050919050565b6139e16139dc82612e99565b6139c6565b82525050565b60006139f3828861397e565b91506139ff828761397e565b9150613a0b82866139d0565b602082019150613a1b828561397e565b9150613a2782846139d0565b6020820191508190509695505050505050565b60008190508160005260206000209050919050565b60006020601f8301049050919050565b600082821b905092915050565b600060088302613a9c7fffffffffffffffffffffffffffffffffffffffffffffffffffffffffffffffff82613a5f565b613aa68683613a5f565b95508019841693508086168417925050509392505050565b6000819050919050565b6000613ae3613ade613ad984612e99565b613abe565b612e99565b9050919050565b6000819050919050565b613afd83613ac8565b613b11613b0982613aea565b848454613a6c565b825550505050565b600090565b613b26613b19565b613b31818484613af4565b505050565b5b81811015613b5557613b4a600082613b1e565b600181019050613b37565b5050565b601f821115613b9a57613b6b81613a3a565b613b7484613a4f565b81016020851015613b83578190505b613b97613b8f85613a4f565b830182613b36565b50505b505050565b600082821c905092915050565b6000613bbd60001984600802613b9f565b1980831691505092915050565b6000613bd68383613bac565b9150826002028217905092915050565b613bef82612e1a565b67ffffffffffffffff811115613c0857613c07612be7565b5b613c128254613942565b613c1d828285613b59565b600060209050601f831160018114613c505760008415613c3e578287015190505b613c488582613bca565b865550613cb0565b601f198416613c5e86613a3a565b60005b82811015613c8657848901518255600182019150602085019450602081019050613c61565b86831015613ca35784890151613c9f601f891682613bac565b8355505b6001600288020188555050505b505050505050565b6000613cd3613cce613cc984612d5b565b613abe565b612d5b565b9050919050565b6000613ce582613cb8565b9050919050565b6000613cf782613cda565b9050919050565b613d0781613cec565b82525050565b60006040820190508181036000830152613d278185612e60565b9050613d366020830184613cfe565b9392505050565b7f4e487b7100000000000000000000000000000000000000000000000000000000600052601160045260246000fd5b6000613d7782612e99565b91507fffffffffffffffffffffffffffffffffffffffffffffffffffffffffffffffff8203613da957613da8613d3d565b5b600182019050919050565b6000613dc0828561397e565b9150613dcc828461397e565b91508190509392505050565b60008154613de581613942565b613def8186613973565b94506001821660008114613e0a5760018114613e1f57613e52565b60ff1983168652811515820286019350613e52565b613e2885613a3a565b60005b83811015613e4a57815481890152600182019150602081019050613e2b565b838801955050505b50505092915050565b6000613e678284613dd8565b915081905092915050565b7f4e487b7100000000000000000000000000000000000000000000000000000000600052603260045260246000fd5b6000613eac82612e99565b9150613eb783612e99565b9250828202613ec581612e99565b91508282048414831517613edc57613edb613d3d565b5b5092915050565b7f4e487b7100000000000000000000000000000000000000000000000000000000600052601260045260246000fd5b6000613f1d82612e99565b9150613f2883612e99565b925082613f3857613f37613ee3565b5b828204905092915050565b6000613f4e82612e99565b9150613f5983612e99565b9250828203905081811115613f7157613f70613d3d565b5b92915050565b6000604082019050613f8c6000830185612f89565b613f996020830184612ea3565b9392505050565b6000604082019050613fb5600083018561303b565b613fc2602083018461303b565b939250505056fea264697066735822122087e852e0f01fbb94dfb4f77d80be151ed3f1f388a797c705cbb6c3d3bfe3dfe864736f6c63430008110033",
  "immutableReferences": {},
  "source": "// SPDX-License-Identifier: UNLICENSED\npragma solidity ^0.8.0;\ncontract trans { \n\n     // Register user\n    struct User {\n        string fName;\n        string lName;\n        string mobile;\n        string dob;\n        uint256 age;   \n    }\n    // Variables - uint\n    uint256 noofUser = 0;\n    uint256 k=0;\n    //variables - bool\n    bool private transcationStatus = false;\n    bool loginstatus = false;\n    \n\n    //mapping\n    mapping (string => address payable) public usersWithAddress;\n    mapping (string => User) public users;\n    mapping (uint256 => string) public allUserId;\n    mapping(string => bytes32) public usernamecreditainals;  //Store username;\n    mapping(string => bytes32) public passwordcreditainals; //Store password;\n    mapping (bytes32 => Transaction) public transactions; // for each transcation id corresponding transcation details are stored\n    mapping(string => bytes32[]) public translog; //       userid   transcationids for each users transcationids are mapped with them\n    mapping(string => bytes32[]) public receivetrans;\n\n    //Events\n    event flag(bytes32 s1);\n    event check(string sender, string receiver, uint256 amount, uint256 datetime);\n    event status(bool transcationStatus, uint256 subsidy);\n    event loopchk (string str1, address ad1);\n\n    // create a users \n    function createUser(string memory _userId, string memory _fName, string memory _lName, string memory _mobile, string memory _dob, uint256 _age) public {\n        if(!chkexisitinguserId(_userId)){\n            users[_userId] = User(_fName, _lName, _mobile, _dob, _age);\n            noofUser++;\n            allUserId[k] = _userId;\n            k++;\n        }\n    }\n\n    //Function used to check existing userid which promotes to create unique userId;\n    function chkexisitinguserId(string memory _userId) public view returns (bool) {\n        bool isexist = false;\n        for(uint a =0;a<k;a++){\n            if(keccak256(abi.encodePacked(_userId)) == keccak256(abi.encodePacked(allUserId[a]))){\n                isexist = true;\n                break;\n               \n            }\n        }\n         return isexist;\n    }\n\n    //Returns wheather the user exist or not \n    function getuserbool(string memory _userId, string memory _Sname) public view returns (bool){\n        User memory user = users[_userId];\n        return keccak256(abi.encodePacked(user.fName)) == keccak256(abi.encodePacked(_Sname));\n    }\n\n    function mapaddress(string memory _userId, address payable _addr) public{\n        usersWithAddress[_userId] = _addr;\n    }\n\n    function getuserAddr(string memory _userId) public view returns (address payable){\n        return usersWithAddress[_userId];\n    }\n\n    //Returns user details\n    function getUser(string memory _userId) public view returns (string memory, string memory, string memory, string memory, uint256) {\n        User memory user = users[_userId];\n        return (user.fName, user.lName, user.mobile, user.dob, user.age);\n    }\n\n    // Returns total number of users \n    function getnoofUser() public view returns (uint256){\n        return noofUser;\n    }\n    \n     //Setup initial user creditanials for 1st time login\n    function createuserNameandpassword(string memory _user_Id, string memory _firstname, string memory mobile, string memory dob) public{\n        usernamecreditainals[_user_Id] = keccak256(abi.encodePacked(_user_Id, mobile));\n        passwordcreditainals[_user_Id] = keccak256(abi.encodePacked(_firstname, dob));\n    }\n\n    //update user creditanials of the user \n    function updateusercreditainals(string memory _user_Id, string memory _username, string memory _password, string memory mobile, string memory dob) public {\n        usernamecreditainals[_user_Id] = keccak256(abi.encodePacked(_username, mobile));\n        passwordcreditainals[_user_Id] = keccak256(abi.encodePacked(_password, dob));\n    }\n\n    event logindetails(bytes32 username, bytes32 password);\n    //check user creditanials for logging in \n    function checkusercreditanials(string memory _userName, string memory _passWord,string memory _userId, string memory mobile, string memory dob) public returns (bool){\n          if((keccak256(abi.encodePacked(_userName,mobile)) == usernamecreditainals[_userId]) && (keccak256(abi.encodePacked(_passWord,dob)) == passwordcreditainals[_userId])){\n              loginstatus = true;\n              emit logindetails(usernamecreditainals[_userId], passwordcreditainals[_userId]);\n          }\n          return loginstatus;\n    }\n\n    //Transcation Structure\n    struct Transaction {\n        string sender;\n        string receiver;\n        uint256 amount;\n        string message;\n        uint256 datetime;    \n    }\n    \n    //storeTranscationDetails => store the details of each transcations \n    function storeTransactionDetails(string memory _userId, string memory _sender, string memory _receiver, string memory _recID, uint256 _amount, string memory _message, uint256 _datetime) public {\n        //unique transferid is created using keccak256 hash by passing transcation details and hash is produced as output\n        bytes32 transferid = keccak256(abi.encodePacked(_sender, _receiver, _amount, _message, _datetime));\n        //Hash is used as index for storing each transcation and also retrieved using this hash\n        transactions[transferid] = Transaction(_sender, _receiver, _amount, _message, _datetime);\n        translog[_userId].push(transferid);\n        receivetrans[_recID].push(transferid);\n\n        emit flag(transferid);\n    }\n    // this function returns value of each function for corresponding transferid         \n    function gettranscationid(bytes32 _tid) public view returns (string memory, string memory, uint256, uint256){\n\n        return (transactions[_tid].sender, transactions[_tid].receiver,transactions[_tid].amount,transactions[_tid].datetime);\n    }\n\n    \n    \n    //returns all the transcations done by the each users by passing userid as input and returns as array of strings\n    function gettranscationhistory(string memory _userId) public returns (string[] memory , \n                                                                          string[] memory, \n                                                                          uint256[] memory, \n                                                                          uint256[] memory)\n        {\n    \n        //len stores the total number of transcation done by the user.\n        uint256 len = translog[_userId].length;\n        string[] memory sender    = new string[](len);\n        string[] memory receiver  = new string[](len);\n        uint256[] memory amount   = new uint256[](len);\n        uint256[] memory datetime = new uint256[](len);\n        \n        for(uint256 i=0;i<translog[_userId].length;i++){\n          \n          sender[i]   = transactions[translog[_userId][i]].sender;\n          receiver[i] = transactions[translog[_userId][i]].receiver;\n          amount[i]   = transactions[translog[_userId][i]].amount;\n          datetime[i] = transactions[translog[_userId][i]].datetime;\n\n          emit check(sender[i], receiver[i],amount[i], datetime[i]);\n        }\n        \n        return (sender, receiver,amount,datetime);\n    }\n    //ReceiveTranscationHistory\n    function getreceivetranscationhistory(string memory _userId) public returns(string[] memory, \n                                                                                string[] memory,\n                                                                                uint256[] memory,\n                                                                                uint256[] memory)\n    {\n       //len stores the total number of transcation done by the user.\n                      uint256 len = receivetrans[_userId].length;\n        string[]  memory sender   = new string[] (len);\n        string[]  memory receiver = new string[] (len);\n        uint256[] memory amount   = new uint256[](len);\n        uint256[] memory datetime = new uint256[](len);\n\n        for(uint256 i=0;i<receivetrans[_userId].length;i++){\n          \n          sender[i]   = transactions[receivetrans[_userId][i]].sender;\n          receiver[i] = transactions[receivetrans[_userId][i]].receiver;\n          amount[i]   = transactions[receivetrans[_userId][i]].amount;\n          datetime[i] = transactions[receivetrans[_userId][i]].datetime;\n\n          emit check(sender[i], receiver[i],amount[i], datetime[i]);\n        }\n        \n        return (sender,receiver,amount,datetime);\n\n\n    }\n\n   \n   \n\n    constructor() payable{}\n\n    receive() external payable {}\n\n    function checktransfertype(string memory str1,string memory str2)public pure returns (bool) {\n        return keccak256(abi.encodePacked(str1)) == keccak256(abi.encodePacked(str2));\n    }\n    // Transfer Money\n    function transfermoney(\n        string memory _Sname, \n        string memory _S_userid, \n        string memory _Rname, \n        string memory _R_userid,\n        string memory transtype,  \n        uint256 amt) external payable{\n                \n            address payable temp;\n            uint256 amount =0;\n            //TransferType    -   subsidy allocation  \n            //petrol          =    20%\n            //Food            =    20%\n            //LPG             =    15%\n            //1000000000000000000\n             \n             if(getuserbool(_S_userid, _Sname) && getuserbool(_R_userid,_Rname)){\n                 //Retrieve address of receiver\n                 temp = getuserAddr(_R_userid);\n\n                if(checktransfertype(\"petrol\",transtype)){\n                    //deducting 20 % amount total amount \n                    amount = (amt*20)/100;\n                    amt = amt - amount;\n                    temp.transfer(amt);\n                    transcationStatus = true;\n                    uint256 time = block.timestamp;\n                    storeTransactionDetails(_S_userid, _Sname, _Rname, _R_userid, amt, transtype, time );\n       \n                    emit status(transcationStatus , amt);\n                }\n                \n                else if(checktransfertype(\"food\",transtype)){\n                    \n                    //deducting 20 % amount total amount \n                    amount = (amt*20)/100;\n                    amt = amt - amount;\n                    temp.transfer(amt);\n                    transcationStatus = true;\n                    uint256 time = block.timestamp;\n                    storeTransactionDetails(_S_userid, _Sname, _Rname, _R_userid, amt, transtype, time );\n       \n                    emit status(transcationStatus , amt);\n                }\n                \n                else if(checktransfertype(\"LPG\",transtype)){\n                    \n                    //deducting 20 % amount total amount \n                    amount = (amt*15)/100;\n                    amt = amt - amount;\n                    temp.transfer(amt);\n                    transcationStatus = true;\n                    uint256 time = block.timestamp;\n                    storeTransactionDetails(_S_userid, _Sname, _Rname, _R_userid, amt, transtype, time );\n       \n                    emit status(transcationStatus , amt);\n                }\n                \n                else{\n\n                    temp.transfer(amt);\n                    transcationStatus = true;\n                    uint256 time = block.timestamp;\n                    storeTransactionDetails(_S_userid, _Sname, _Rname, _R_userid, amt, transtype, time );\n       \n                    emit status(transcationStatus, amt);\n                }\n            }\n        }\n\n        function getwalletbalance(address addr) public view returns(address) {\n\n        }\n\n        \n\n        function sendsubsidyfund(uint amt) external payable{\n            string memory _user_id = \"\";\n            address payable tempAdd;\n            \n            for(uint256 j=0;j<k;j++){\n                _user_id = allUserId[j];\n                tempAdd = usersWithAddress[_user_id];\n                tempAdd.transfer(amt);\n                emit loopchk (_user_id,tempAdd);\n            }\n        }\n\n    \n\n\n\n\n\n    \n    \n    \n    \n    \n    //function getloan(string memory _userId)\n\n\n//  contracts need to develop        \n//  +---------+------------------------------+----------------+\n//  | Number  |      Contract Name           |    Status      |\n//  |---------+------------------------------+----------------+\n//  |  1      |     user registration        |     Done     |\n//  |  2      |      Retrieve users          |     Done     |\n//  |  3      |  Store transcations details  |     Done     |\n//  |  4      | Retrieve transcation details |     Done     |\n//  |  5      |       Transfermoney          |     Done     |\n//  |  6      |       Receive History        |     Done     |\n//  |  7      |       Get Loan               |     pending  |\n//  |  8      |       Refugee subsidy fund   |     Done     |\n//  |  9      |       Circle of Trust        |     pending  |\n//  |  10     |       User Login             |     Done     |\n//  |  11     |       Business Registration  |     pending  |\n//  |  12     |                              |     pending  |\n//  +---------+------------------------------+----------------+\n//\n//\n\n}",
  "sourcePath": "/Users/gowthambujju/Gowtham/developement/reactapp/RefugeeV4/backend/Refugee/src/contracts/Refugee.sol",
  "compiler": {
    "name": "solc",
    "version": "0.8.17+commit.8df45f5f.Emscripten.clang"
  },
  "schemaVersion": "3.4.11",
  "updatedAt": "2023-01-18T05:07:43.420Z",
  "devdoc": {
    "kind": "dev",
    "methods": {},
    "version": 1
  },
  "userdoc": {
    "kind": "user",
    "methods": {},
    "version": 1
  }
}